:020000040800F2
:100000000080012015600008115E0008195E0008DC
:10001000215E0008295E0008315E00080000000033
:10002000000000000000000000000000395E000831
:10003000475E000800000000555E00084D420008C1
:10004000656000086560000865600008656000087C
:10005000656000086560000865600008656000086C
:10006000656000086560000865600008656000085C
:10007000656000086560000865600008656000084C
:1000800065600008656000085D330008000000003E
:100090000000000000000000000000006560000893
:1000A000656000086560000865600008656000081C
:1000B000656000086560000865600008213F000871
:1000C0003D3F000865600008656000086560000845
:1000D00065600008C1460008ED4600080000000009
:1000E00065600008656000086560000800000000A9
:1000F0000000000000000000000000006560000833
:100100000000000065600008656000086560000888
:1001100000000000000000000000000000000000DF
:10012000656000086560000865600008656000089B
:1001300065600008000000000000000000000000F2
:1001400000000000000000000000000065600008E2
:10015000656000086560000865600008656000086B
:1001600065600008656000080000000000000000F5
:10017000000000000000000000000000000000007F
:1001800000000000656000080000000000000000A2
:04019000656000089E
:1001A00010B5054C237833B9044B13B10448AFF3B1
:1001B00000800123237010BDCC010020000000004E
:1001C000B096000808B5034B1BB103490348AFF3D1
:1001D000008008BD00000000D0010020B09600089B
:1001E00010F8012B11F8013B012A28BF9A42F7D0E1
:1001F000D01A70470000000000000000000000005E
:1002000001F0FF01102A2BDB10F0070F08D010F8C7
:10021000013B013A8B422DD010F0070F42B3F6D1CB
:10022000F0B441EA012141EA014122F007047FF0E4
:1002300000070023F0E80256083C85EA010586EA3B
:10024000010685FA47F5A3FA87F586FA47F6A5FA77
:1002500087F68EB9EED1F0BC01F0FF0102F0070283
:1002600032B110F8013B013A83EA010313B1F8D12E
:100270000020704701387047002D06BF354603380F
:10028000073815F0010F07D1013015F4807F02BF48
:10029000013015F4C03F0130F0BC0138704700BF99
:1002A000034613F8012B002AFBD1181A01387047B6
:1002B00081F0004102E000BF83F0004330B54FEA17
:1002C00041044FEA430594EA050F08BF90EA020F84
:1002D0001FBF54EA000C55EA020C7FEA645C7FEA17
:1002E000655C00F0E2804FEA5454D4EB5555B8BF3A
:1002F0006D420CDD2C4480EA020281EA030382EAAB
:10030000000083EA010180EA020281EA0303362D3C
:1003100088BF30BD11F0004F4FEA01314FF4801C0F
:100320004CEA113102D0404261EB410113F0004F21
:100330004FEA03334CEA133302D0524263EB4303D8
:1003400094EA050F00F0A780A4F10104D5F1200E76
:100350000DDB02FA0EFC22FA05F2801841F10001D1
:1003600003FA0EF2801843FA05F359410EE0A5F1A5
:1003700020050EF1200E012A03FA0EFC28BF4CF0D6
:10038000020C43FA05F3C01851EBE37101F000458C
:1003900007D54FF0000EDCF1000C7EEB00006EEB99
:1003A0000101B1F5801F1BD3B1F5001F0CD3490823
:1003B0005FEA30004FEA3C0C04F101044FEA44527A
:1003C00012F5800F80F09A80BCF1004F08BF5FEA01
:1003D000500C50F1000041EB045141EA050130BDE1
:1003E0005FEA4C0C404141EB0101013C28BFB1F5F3
:1003F000801FE9D291F0000F04BF01460020B1FA3E
:1004000081F308BF2033A3F10B03B3F120020CDA10
:100410000C3208DD02F1140CC2F10C0201FA0CF0EE
:1004200021FA02F10CE002F11402D8BFC2F1200C53
:1004300001FA02F120FA0CFCDCBF41EA0C01904009
:10044000E41AA2BF01EB0451294330BD6FEA040452
:100450001F3C1CDA0C340EDC04F11404C4F120023D
:1004600020FA04F001FA02F340EA030021FA04F34F
:1004700045EA030130BDC4F10C04C4F1200220FAA6
:1004800002F001FA04F340EA0300294630BD21FAE4
:1004900004F0294630BD94F0000F83F4801306BFAA
:1004A00081F480110134013D4EE77FEA645C18BF9E
:1004B0007FEA655C29D094EA050F08BF90EA020F35
:1004C00005D054EA000C04BF1946104630BD91EA2D
:1004D000030F1EBF0021002030BD5FEA545C05D130
:1004E0004000494128BF41F0004130BD14F580046F
:1004F0003CBF01F5801130BD01F0004545F0FE41E3
:1005000041F470014FF0000030BD7FEA645C1ABF17
:10051000194610467FEA655C1CBF0B46024650EA4E
:10052000013406BF52EA033591EA030F41F400217A
:1005300030BD00BF90F0000F04BF0021704730B500
:100540004FF4806404F132044FF000054FF00001D5
:1005500050E700BF90F0000F04BF0021704730B596
:100560004FF4806404F1320410F0004548BF40426B
:100570004FF000013EE700BF42004FEAE2014FEAC0
:1005800031014FEA02701FBF12F07F4393F07F4F9B
:1005900081F06051704732F07F4208BF704793F09E
:1005A0007F4F04BF41F40021704730B54FF46074B1
:1005B00001F0004521F000411CE700BF50EA0102B4
:1005C00008BF704730B54FF000050AE050EA01025D
:1005D00008BF704730B511F0004502D5404261EBCD
:1005E00041014FF4806404F132045FEA915C3FF40E
:1005F000D8AE4FF003025FEADC0C18BF03325FEAAB
:10060000DC0C18BF033202EBDC02C2F1200300FA5B
:1006100003FC20FA02F001FA03FE40EA0E0021FA80
:1006200002F11444BDE600BF70B54FF0FF0C4CF46E
:10063000E06C1CEA11541DBF1CEA135594EA0C0F20
:1006400095EA0C0F00F0DEF82C4481EA030621EA5B
:100650004C5123EA4C5350EA013518BF52EA033596
:1006600041F4801143F4801338D0A0FB02CE4FF048
:100670000005E1FB02E506F00042E0FB03E54FF078
:100680000006E1FB03569CF0000F18BF4EF0010E70
:10069000A4F1FF04B6F5007F64F5407404D25FEA6C
:1006A0004E0E6D4146EB060642EAC62141EA55511F
:1006B0004FEAC52040EA5E504FEACE2EB4F1FD0C61
:1006C00088BFBCF5E06F1ED8BEF1004F08BF5FEADF
:1006D000500E50F1000041EB045170BD06F0004691
:1006E00046EA010140EA020081EA0301B4EB5C043E
:1006F000C2BFD4EB0C0541EA045170BD41F4801136
:100700004FF0000E013C00F3AB8014F1360FDEBF5A
:10071000002001F0004170BDC4F10004203C35DA36
:100720000C341BDC04F11404C4F1200500FA05F3B9
:1007300020FA04F001FA05F240EA020001F000425A
:1007400021F0004110EBD37021FA04F642EB0601D0
:100750005EEA430E08BF20EAD37070BDC4F10C04FA
:10076000C4F1200500FA04F320FA05F001FA04F2BE
:1007700040EA020001F0004110EBD37041F10001AA
:100780005EEA430E08BF20EAD37070BDC4F12005B5
:1007900000FA05F24EEA020E20FA04F301FA05F21D
:1007A00043EA020321FA04F001F0004121FA04F2C5
:1007B00020EA020000EBD3705EEA430E08BF20EA95
:1007C000D37070BD94F0000F0FD101F000464000CF
:1007D00041EB010111F4801F08BF013CF7D041EA51
:1007E000060195F0000F18BF704703F00046520055
:1007F00043EB030313F4801F08BF013DF7D043EA26
:100800000603704794EA0C0F0CEA135518BF95EADB
:100810000C0F0CD050EA410618BF52EA4306D1D162
:1008200081EA030101F000414FF0000070BD50EA81
:10083000410606BF1046194652EA430619D094EA0B
:100840000C0F02D150EA013613D195EA0C0F05D1F5
:1008500052EA03361CBF104619460AD181EA030149
:1008600001F0004141F0FE4141F470014FF0000001
:1008700070BD41F0FE4141F4780170BD70B54FF09C
:10088000FF0C4CF4E06C1CEA11541DBF1CEA13551C
:1008900094EA0C0F95EA0C0F00F0A7F8A4EB0504FE
:1008A00081EA030E52EA03354FEA013100F08880F5
:1008B0004FEA03334FF0805545EA131343EA1263BE
:1008C0004FEA022245EA111545EA10654FEA002673
:1008D0000EF000419D4208BF964244F1FD0404F52C
:1008E000407402D25B084FEA3202B61A65EB030588
:1008F0005B084FEA32024FF480104FF4002CB6EB45
:10090000020E75EB030E22BFB61A754640EA0C00C4
:100910005B084FEA3202B6EB020E75EB030E22BF04
:10092000B61A754640EA5C005B084FEA3202B6EB45
:10093000020E75EB030E22BFB61A754640EA9C0004
:100940005B084FEA3202B6EB020E75EB030E22BFD4
:10095000B61A754640EADC0055EA060E18D04FEA92
:10096000051545EA16754FEA06164FEAC30343EA32
:1009700052734FEAC2025FEA1C1CC0D111F4801FFF
:100980000BD141EA00014FF000004FF0004CB6E7F8
:1009900011F4801F04BF01430020B4F1FD0C88BF97
:1009A000BCF5E06F3FF6AFAEB5EB030C04BFB6EBA2
:1009B000020C5FEA500C50F1000041EB045170BD95
:1009C0000EF0004E4EEA113114EB5C04C2BFD4EBC2
:1009D0000C0541EA045170BD41F480114FF0000E46
:1009E000013C90E645EA060E8DE60CEA135594EAC2
:1009F0000C0F08BF95EA0C0F3FF43BAF94EA0C0FC5
:100A00000AD150EA01347FF434AF95EA0C0F7FF439
:100A100025AF104619462CE795EA0C0F06D152EA8D
:100A200003353FF4FDAE1046194622E750EA410671
:100A300018BF52EA43067FF4C5AE50EA41047FF482
:100A40000DAF52EA43057FF4EBAE12E74FF0FF3CE7
:100A500006E000BF4FF0010C02E000BF4FF0010CB8
:100A60004DF804CD4FEA410C7FEA6C5C4FEA430C31
:100A700018BF7FEA6C5C1BD001B050EA410C0CBF80
:100A800052EA430C91EA030F02BF90EA020F0020E2
:100A9000704710F1000F91EA030F58BF994208BF49
:100AA00090422CBFD8176FEAE37040F00100704706
:100AB0004FEA410C7FEA6C5C02D150EA013C07D15D
:100AC0004FEA430C7FEA6C5CD6D152EA033CD3D0A8
:100AD0005DF8040B704700BF8446104662468C46A2
:100AE0001946634600E000BF01B5FFF7B7FF0028D5
:100AF00048BF10F1000F01BD4DF808EDFFF7F4FFFE
:100B00000CBF012000205DF808FB00BF4DF808ED88
:100B1000FFF7EAFF34BF012000205DF808FB00BFAB
:100B20004DF808EDFFF7E0FF94BF012000205DF8CD
:100B300008FB00BF4DF808EDFFF7CEFF94BF012082
:100B400000205DF808FB00BF4DF808EDFFF7C4FF7B
:100B500034BF012000205DF808FB00BF4FEA410CC4
:100B60007FEA6C5C02D150EA013C0AD14FEA430CA7
:100B70007FEA6C5C02D152EA033C02D14FF00000E4
:100B800070474FF0010070474FEA410212F5001222
:100B900015D211D56FF47873B3EB625212D94FEAC4
:100BA000C12343F0004343EA505311F0004F23FAAE
:100BB00002F018BF404270474FF00000704750EA03
:100BC000013005D111F0004008BF6FF000407047C0
:100BD0004FF00000704700BF4FEA4102B2F1E0431E
:100BE00024BFB3F5001CDCF1FE5C0DD901F0004C14
:100BF0004FEAC0024CEA5070B2F1004F40EB830064
:100C000008BF20F00100704711F0804F21D113F18F
:100C10003872BCBF01F00040704741F480114FEAC8
:100C20005252C2F11802C2F1200C10FA0CF320FA51
:100C300002F018BF40F001004FEAC1234FEAD3236E
:100C400003FA0CFC40EA0C0023FA02F34FEA4303D8
:100C5000CCE77FEA625307D150EA01331EBF4FF061
:100C6000FE4040F44000704701F0004040F0FE407C
:100C700040F40000704700BF7BB972B90029BEBFC5
:100C800000204FF0004106E008BF00281CBF6FF0B5
:100C900000414FF0FF3000F0BBB9ADF1080C6DE939
:100CA00004CE002909DB002B1ADB00F035F8DDF853
:100CB00004E0DDE9022304B07047404261EB4101EA
:100CC000002B1BDB00F028F8DDF804E0DDE902234F
:100CD00004B0404261EB4101524263EB4303704771
:100CE000524263EB430300F017F8DDF804E0DDE95E
:100CF000022304B0404261EB41017047524263EB72
:100D0000430300F009F8DDF804E0DDE9022304B054
:100D1000524263EB430370472DE9F047089D8E462E
:100D200004468846002B4AD18A42174662D9B2FA55
:100D300082F64EB1C6F1200301FA06F820FA03F359
:100D4000B74043EA0808B4404FEA174E1FFA87FC41
:100D5000B8FBFEF1230C0EFB118843EA084301FBAC
:100D60000CF29A4209D9FB1801F1FF3080F0EA80B9
:100D70009A4240F2E78002393B449A1AA3B2B2FB8E
:100D8000FEF00EFB102243EA024300FB0CFC9C45E4
:100D900009D9FB1800F1FF3280F0D6809C4540F263
:100DA000D3803B44023840EA0140A3EB0C0300210E
:100DB0001DB1F3400022C5E90032BDE8F0878B4247
:100DC00005D90DB1C5E9000100210846F5E7B3FAE0
:100DD00083F1002946D1734502D3824200F2058196
:100DE000841A6EEB030201209046002DE5D0C5E980
:100DF0000048E2E7002A00F09080B2FA82F6002E66
:100E000040F0A4808A1A030C4FEA174E80B2BCB29D
:100E10000121B2FBFEFC0EFB1C2243EA024304FB51
:100E20000CF29A4207D9FB180CF1FF3802D29A4211
:100E300000F2E080C4469B1AB3FBFEF20EFB1233B5
:100E400040EA034302FB04F49C4207D9FB1802F179
:100E5000FF3002D29C4200F2CA8002461B1B42EACB
:100E60000C40A5E7C1F120068B4022FA06F71F438C
:100E70000EFA01F420FA06F32EFA06FE4FEA17499D
:100E8000234300FA01F81FFA87FCBEFBF9F01C0CA3
:100E900009FB10EE44EA0E4400FB0CFEA64502FAE4
:100EA00001F209D93C1900F1FF3A80F09C80A64577
:100EB00040F2998002383C44A4EB0E041FFA83FEF2
:100EC000B4FBF9F309FB13444EEA044403FB0CFCA6
:100ED000A44508D93C1903F1FF3E80F08280A44567
:100EE0007FD9023B3C4443EA0040A4EB0C04A0FB46
:100EF00002EC64457346E14662D35FD05DB1B8EB66
:100F0000030264EB090404FA06F622FA01F31E4315
:100F1000CC40C5E9006400214FE7B1FBF2FC010CB5
:100F200041EA0E4180B240EA01423B4638463C4627
:100F3000B846BE462026B1FBF7F1A2EB080241EA13
:100F40000C4166E7014618E710462CE7C6F120027F
:100F50002EFA02F3B740B14020FA02F24FEA174EE0
:100F60000A43B3FBFEF8BCB20EFB1833110C41EA86
:100F7000034108FB04F9B04089454FEA104380B2B1
:100F80003ED9791808F1FF3C01D289451FD8A1EB61
:100F90000901B1FBFEF909FB04F80EFB191192B22D
:100FA00042EA0142424529D2BA1809F1FF31C4D2BE
:100FB0004245C2D2A9F102013A44BEE7F0459DD2B2
:100FC000BEEB02036CEB070C0138E14696E7A7EB9A
:100FD00009094944A8F1020CB1FBFEF909FB04F828
:100FE000DBE773467FE7504666E70846FDE63B448D
:100FF000023A33E7ACF1020C3B441CE749469CE75C
:10100000A1EB0901C446B1FBFEF909FB04F8C4E7F2
:10101000704700BF80B586B002AF03460A46FB7139
:101020001346BB71FB793B73BB797B730E4B93F813
:101030002030002B01D1042311E00B4B58780A4BD0
:10104000197807F10C024FF47A730093022302F02F
:101050005EFE0346002B01D0032300E00023184668
:101060001037BD4680BD00BFE801002080B584B0C8
:1010700002AF03463960FB711346BB711A4B93F8FC
:101080002030002B01D1042329E03B68002B02D043
:10109000BB79002B01D1022321E0134B5878124B6E
:1010A0001978FA1D4FF47A730093012302F02FFE92
:1010B0000346002B01D0032311E00B4B58780A4B59
:1010C0001978BB799BB24FF47A7200923A6802F0B9
:1010D000A2FE0346002B01D0032300E000231846A4
:1010E0000837BD4680BD00BFE801002080B582B052
:1010F00000AF03463960FB71FB790122396818465D
:10110000FFF7B4FF034618460837BD4680BD000010
:1011100080B586B000AF3B46182219468820FFF7FD
:10112000A5FF0346002B01D0072374E07B781B0248
:101130009BB23A7813439AB2394B5A80FB781BB270
:101140001B021AB2BB781BB213431AB2344B9A80FB
:101150007B791BB21B021AB23B791BB213431AB242
:101160002F4BDA80FB791B029BB2BA7913439AB2F8
:101170002B4B1A817B7A1BB21B021AB23B7A1BB231
:1011800013431AB2264B5A81FB7A1BB21B021AB2C6
:10119000BB7A1BB213431AB2214B9A817B7B1BB2E1
:1011A0001B021AB23B7B1BB213431AB21C4BDA81EF
:1011B000FB7B1BB21B021AB2BB7B1BB213431AB2DE
:1011C000174B1A827B7C1BB21B021AB23B7C1BB2F0
:1011D00013431AB2124B5A82FB7C1BB21B021AB287
:1011E000BB7C1BB213431AB20D4B9A827B7D1BB2A0
:1011F0001B021AB23B7D1BB213431AB2084BDA82B0
:10120000FB7D1BB21B021AB2BB7D1BB213431AB289
:10121000034B1A83002318461837BD4680BD00BF14
:10122000E801002080B485B000AF78607B68DA10F8
:10123000184B5B885B00D31A164AB2F9042002FBF4
:1012400003F3DB12FB607B681B11124A52889B1A66
:101250007A6812110F494988521A02FB03F31B13D3
:101260000C4AB2F9062002FB03F39B13BB60FA6839
:10127000BB681344074AD361064BDA6913469B00E7
:10128000134480331B1218461437BD465DF8047BA7
:10129000704700BFE80100202DE9B04FCAB000AF91
:1012A000C7F80C01AF4BDB69DA171C461546B4F5DD
:1012B000FA3A45F1FF3BC7E948ABD7F82421D7F804
:1012C000203103FB02F1D7F82421D7F8203102FBAB
:1012D00003F3CA18D7F82031A3FB038902EB0903F3
:1012E0009946A04BB3F912301BB2DA17C7F8B830E1
:1012F000C7F8BC20D7E92E01034603FB09F20B46D1
:1013000008FB03F313440246A8FB0212C7F8C420EB
:101310000A46C7F8C020D7F8C4201344C7F8C43021
:10132000D7E93034C7E94634C7E946348D4BB3F9C1
:1013300010301BB2DA17C7F8B030C7F8B420D7F8AE
:101340002031D7E92C452A4602FB03F2D7F8243195
:10135000214601FB03F31A44D7F820312146A3FBB1
:101360000113C7F804310B46C7F80031D7F8043130
:10137000D318C7F804314FF000004FF00001D7E94F
:1013800040452B465904234641EAD33123465804AD
:10139000D7E9462314183C644B417B64D7E91034E9
:1013A000C7E946346F4BB3F90E301BB2DA17C7F8F2
:1013B000A830C7F8AC204FF000004FF00001D7F87C
:1013C000A830D9000020D7E946231418BC634B414C
:1013D000FB63D7E90E34C7E94634D7F82421D7F8A0
:1013E000203103FB02F1D7F82421D7F8203102FB8A
:1013F00003F3CA18D7F82031A3FB0313C7F8FC3056
:101400000B46C7F8F830D7F8FC30D318C7F8FC30D3
:10141000544BB3F90C301BB2DA17C7F8A030C7F839
:10142000A420D7E93E452B46D7E92889424602FB4E
:1014300003F24B46214601FB03F313442246414687
:10144000A2FB0112C7F8F4200A46C7F8F020D7F82B
:10145000F4201344C7F8F4304FF000004FF00001BF
:10146000D7E93C452346180A2B4640EA03602B4641
:1014700019123C4BB3F90A301BB2DA17C7F898308F
:10148000C7F89C20D7F82031D7E926894A4602FBC5
:1014900003F2D7F82431444604FB03F31A44D7F887
:1014A00020314446A3FB0443C7F8EC302346C7F879
:1014B000E830D7F8EC30D318C7F8EC304FF0000222
:1014C0004FF00003D7E93A894C462303444643EAE8
:1014D00014534446220384183C6341EB03037B63AB
:1014E000D7E90C34C7E94834D7E9482303F500416C
:1014F000C7F89410C7F890201A4B1B899BB20022A2
:10150000C7F88830C7F88C20D7E924452B46D7E99F
:101510002289424602FB03F24B46214601FB03F3BC
:10152000134422464146A2FB0112C7F8E4200A46B2
:10153000C7F8E020D7F8E4201344C7F8E4304FF0B0
:1015400000024FF00003D7E9384529464A102946E2
:10155000CB17C7E94823D7E94823134304D1002315
:1015600049E100BFE8010020D7F80C31C3F5801332
:10157000DA17BB62FA62D7E90A34C7E94434D7F80C
:1015800010315B10C7F88430D7F81031DB07C7F88B
:101590008030D7E94623D7E920452146891AB96723
:1015A000294661EB0303FB67D7E91E4522462B461C
:1015B000911839625B417B62D7E9082321465118B3
:1015C000B96129464B41FB614FF000024FF0000327
:1015D000D7E9068949468B01414643EA9163414672
:1015E0008A01414689183961494643EB0101796115
:1015F0004FF000024FF00003D7E9048949468B0001
:10160000414643EA917341468A0010461946034613
:1016100022469B18BB600B462A4642EB0303FB6045
:101620004FF000024FF00003D7E9028949468B00D2
:10163000414643EA917341468A00104619460346E3
:1016400022469B183B672B460A4642EB03037B6707
:10165000D7E94823D7E91C01FFF70EFB02460B46EA
:10166000C7E94423674BB3F918301BB2DA17BB66DE
:10167000FA66D7E944234FF000004FF00001500B09
:1016800040EAC3405913D7E91A452B4600FB03F241
:10169000234603FB01F313442246A2FB0012C7F8C2
:1016A000DC200A46C7F8D820D7F8DC201344C7F856
:1016B000DC30D7E944234FF000004FF00001500B1D
:1016C00040EAC3405913D7E936452B4600FB03F2E5
:1016D000234603FB01F313442246A2FB0012C7F882
:1016E000D4200A46C7F8D020D7F8D4201344C7F82E
:1016F000D4304FF000024FF00003D7E934452146C3
:101700004A0E294642EAC11229464B16C7E9482328
:101710003C4BB3F916301BB2DA173B667A66D7F842
:101720001031D7E918452A4602FB03F2D7F81431E5
:10173000214601FB03F31344D7F810212146A2FBF5
:101740000112C7F8CC200A46C7F8C820D7F8CC2029
:101750001344C7F8CC304FF000024FF00003D7E934
:1017600032452146CA0C294642EA41322946CB1469
:10177000C7E94623D7E94401D7E948238418BC6563
:1017800041EB0303FB65D7E94623D7E9164521461C
:1017900089183965294643EB010179654FF000004E
:1017A0004FF00001D7E914452346180A2B4640EABA
:1017B00003602B461912134BB3F914301BB2DA171E
:1017C000BB64FA644FF000024FF00003D7E91289BE
:1017D0004C462301444643EA1473444622018418CC
:1017E0003C6041EB03037B60D7E90034C7E9443434
:1017F000D7F810311B0A184607F59477BD46BDE8A7
:10180000B08F00BFE801002080B584B000AF034670
:101810000A46FB711346BB71214AFB795370204A7B
:10182000BB7913701E4B012283F82020052002F0A3
:10183000B5FC07F10F03184600F08DF80346002BA6
:1018400002D1FB7B582B0BD0FB7B58221946154845
:1018500005F020F9124B002283F8202001231BE021
:1018600000F024F80346002B01D0012314E0FFF719
:101870004FFC0346002B01D007230DE00A4A07F175
:10188000080392E8030018600433198007F1080385
:10189000184600F01FF8034618461037BD4680BDB5
:1018A000E8010020C8960008FC96000880B582B0C8
:1018B00000AFB621E020FFF7ADFB0346FB71FB79DB
:1018C000002B02D10A2002F069FCFB791846083788
:1018D000BD4680BD80B584B000AF78607B68002BCA
:1018E00001D1022333E07B685B785BB25B015AB2C3
:1018F0007B689B785BB29B005BB213435AB27B68F8
:101900001B785BB213435BB2FB73FB7B1946F4207D
:10191000FFF780FB0346002B01D0012317E07B6813
:101920001B795BB25B015AB27B68DB785BB29B00D0
:101930005BB213435AB27B685B795BB213435BB211
:10194000BB73BB7B1946F520FFF764FB03461846C3
:101950001037BD4680BD80B582B000AF78607B682F
:10196000002B01D1022304E07968D020FFF7BEFBF1
:10197000034618460837BD4680BD80B586B000AF27
:1019800078607B68002B01D1022331E007F1080366
:1019900006221946F720FFF769FB0346002B01D00A
:1019A000012325E03B7A1A037B7A1B011343BA7AA1
:1019B0001209D2B213437B61FB7A1A033B7B1B01F2
:1019C00013437A7B1209D2B213433B613869FFF7A4
:1019D00029FC02467B681A607869FFF75DFC0246C5
:1019E0007B685A6002F00CFC02467B689A60002318
:1019F00018461837BD4680BD80B582B000AF78600C
:101A0000044A7B681360044805F0B4F800BF083747
:101A1000BD4680BD980400200497000880B598B0AA
:101A200000AF78600B467B80434B1B68002B7AD05D
:101A30007B88032B77D97B681B7803F0F003302B6E
:101A400073D13E4805F096F87B6802331B781BB2D1
:101A50001B021AB27B6803331B781BB213431BB201
:101A6000A7F85C300423A7F85A30B7F85A20B7F823
:101A70005C301A447B889A4203DB314805F07AF8DF
:101A800056E0B7F85C30402B28BF4023A7F8583009
:101A9000B7F85A307A68D118B7F8582007F10C0314
:101AA000184605F04EFAB7F8583060333B44002230
:101AB00003F8542CB7F85A20B7F85C301344A7F851
:101AC0005E307B681B785B08DBB203F0030387F8AA
:101AD000573097F85730002B04D0B7F85E300233F8
:101AE000A7F85E30B7F85E207B889A421FD27A88CA
:101AF000B7F85E30D31AA7F85430B7F85E307A687A
:101B000013443B65B7F8542007F10C0319460D4800
:101B100004F0C0FF084B1B68B7F8542007F10C0015
:101B2000396D984704E000BF02E000BF00E000BF4D
:101B30006037BD4680BD00BF98040020289700088C
:101B40004C9700086897000880B582B000AF01206C
:101B500002F060FD0346FB71654BB3F80432B3F548
:101B6000007F20D2624BB3F800321946604AFB79FD
:101B700053545F4BB3F8003201335A42C3F30803A6
:101B8000C2F3080258BF53429AB2594BA3F800223D
:101B9000574BB3F8043201339AB2554BA3F80422E1
:101BA000544B01221A70544B1B78DBB2062B00F207
:101BB000948001A252F823F0D51B0008F11B000805
:101BC000071C00081D1C0008331C0008491C0008E5
:101BD000931C0008FB792B2B40F08380464B01229D
:101BE0001A70464B00221A80454B00221A8078E07A
:101BF000FB79492B03D1404B02221A7074E03E4B13
:101C000000221A7070E0FB79502B03D13A4B03226B
:101C10001A7069E0384B00221A7065E0FB79442B9A
:101C200003D1354B04221A705EE0334B00221A7048
:101C30005AE0FB792C2B03D12F4B05221A7053E06D
:101C40002D4B00221A704FE0FB792F2B13D9FB7913
:101C5000392B10D82A4B1B889BB21A46920013448A
:101C60005B009AB2FB799BB213449BB2303B9AB2B1
:101C7000234B1A8038E0FB793A2B06D11E4B062203
:101C80001A701E4B00221A802EE01B4B00221A7085
:101C90002AE01A4B1B889BB2B3F5007F19D2174B71
:101CA0001B889BB25A1C91B2144A11801946154ADE
:101CB000FB795354114B1B889AB2114B1B889BB272
:101CC0009A4210D3104B01221A700B4B00221A704B
:101CD00009E0094B00221A7005E0074B00221A7038
:101CE00002E000BF00E000BF00BF0837BD4680BD76
:101CF0000C020020940400209D040020A006002077
:101D0000A2060020A00400209C04002080B485B01E
:101D100000AF78600B467B800023FB8123E01A4BE9
:101D2000B3F802321946FB897A681344164A525CAA
:101D30001A70154BB3F8023201335A42C3F3080349
:101D4000C2F3080258BF53429AB20F4BA3F80222C3
:101D50000D4BB3F80432013B9AB20B4BA3F80422AB
:101D6000FB890133FB81084BB3F80432002B03D00D
:101D7000FA897B889A42D2D3FB8918461437BD462C
:101D80005DF8047B704700BF0C02002080B586B070
:101D900000AFF8600B467A607B817868FEF780FAC6
:101DA0000346BB82BA8A7B899A4201D9002319E093
:101DB0000023FB820FE0FB8AFA681344BA8A796831
:101DC000184605F017F80346002B01D1012309E05E
:101DD000FB8A0133FB82FA8A7989BB8ACB1A9A4241
:101DE000E9DD002318461837BD4680BD80B582B0B6
:101DF00000AF00F025FC80220021214804F0F2FF12
:101E00002049012002F036FC1F4804F0B3FE40F6E2
:101E1000B83002F0DBF900F013FC1C4804F0AAFE15
:101E200000F042F80346FB71FB79002B06D0FB79EA
:101E30001946174804F02EFEFB791CE0154804F003
:101E400099FE154800F0ACF90346FB71FB79002BB5
:101E500004D0124804F08EFEFB790CE041F2883188
:101E60000F4800F0CFF90346FB71FB7919460D4886
:101E700004F010FEFB7918460837BD4680BD00BF50
:101E800014040020491B000890970008CC97000814
:101E9000F097000818980008489800085098000823
:101EA000789800087C98000880B582B000AF0023C5
:101EB000FB7120E000F0C4FB134800F071F9034609
:101EC000BB71BB79002B03D0FB790133FB7112E0AE
:101ED00041F288310D4800F095F90346BB71BB799A
:101EE000002B01D100230AE0FB790133FB714FF491
:101EF000FA7002F06BF9FB79022BDBD90323184649
:101F00000837BD4680BD00BFC0980008789800081B
:101F100080B584B000AF0346FB71FB790D4A0E49D2
:101F20000E4804F065FE0D4800F03AF90346FB73D5
:101F3000FB7B002B01D0FB7B07E041F28831084896
:101F400000F060F90346FB73FB7B18461037BD4673
:101F500080BD00BFC8980008D49800081404002071
:101F60007898000880B586B002AF786039603B6829
:101F700000937B68134A1449144804F039FE13484F
:101F800000F00EF90346FB73FB7B002B01D0FB7BBB
:101F900013E042F210710E4800F034F90346FB736F
:101FA000FB7B002B01D0FB7B07E042F2107109485C
:101FB00000F028F90346FB73FB7B18461037BD463B
:101FC00080BD00BFDC980008E898000814040020D9
:101FD000F89800080899000880B5ADF5047D00AFB9
:101FE00007F50473A3F5037318600A4607F5047335
:101FF000A3F20D231A7000F023FB07F10C034FF43A
:1020000000720021184604F0EDFE234800F0C8F8E5
:10201000034687F80F3297F80F32002B02D097F85B
:102020000F3233E04FF4FA7002F0D0F807F10C03EE
:102030004FF400711846FFF769FE0346A7F80C320B
:10204000B7F80C32002B20D007F50473A3F20D2350
:102050001B789BB2B7F80C229A4216D2B7F80C2222
:1020600007F10C0107F50473A3F50373186804F076
:1020700068FFB7F80C3207F50472A2F50372126814
:10208000134400221A70002300E00123184607F5CC
:102090000477BD4680BD00BF2099000880B586B09A
:1020A00002AF78600B467B801C4A1D491D4804F036
:1020B0009FFD1C4800F074F80346FB73FB7B002B6C
:1020C00001D0FB7B25E041F28831174800F09AF8F7
:1020D0000346FB73FB7B002B01D0FB7B19E07B8865
:1020E00000937B68114A12490E4804F081FD0D48A7
:1020F00000F056F80346FB73FB7B002B01D0FB7B03
:1021000007E042F210710B4800F07CF80346FB73C5
:10211000FB7B18461037BD4680BD00BF2C990008D8
:1021200038990008140400207898000840990008A5
:10213000509900086499000880B584B000AF7860B9
:102140000B467B807B88124A1249134804F050FDED
:10215000114800F025F80346FB73FB7B002B01D0F0
:10216000FB7B11E0642002F031F87B88DBB21A4679
:102170007968012002F00AFA41F28831074800F03C
:1021800041F80346FB73FB7B18461037BD4680BD04
:102190006C990008D498000814040020789900086D
:1021A00080B584B000AF78607868FEF779F80346B0
:1021B000FB81FB89002B02D0FB89802B01D90123F5
:1021C00017E079680D4804F065FCFB89DBB21A461C
:1021D0007968012002F0DAF903467B737B7B002BE0
:1021E00006D07B7B1946064804F054FC012300E02E
:1021F000002318461037BD4680BD00BFA0990008D7
:10220000BC99000880B5ADF5087D00AF07F50873EF
:10221000A3F50773186007F50873A3F50873196031
:102220000023A7F81E320023C7F8183207F50873F9
:10223000A3F508731B68D04AA2FB0323DB08C7F889
:102240000C3207F108034FF400720021184604F025
:10225000C9FD07F50873A3F5087207F50873A3F520
:10226000077312681968C54804F014FC6BE1C44B8D
:102270001B78DBB2002B00F05E81C24804F07AFCD0
:10228000B7F81E3207F108021A44B7F81E32C3F538
:1022900000739BB219461046FFF738FD0346A7F8B6
:1022A0000A32B7F81E22B7F80A321344A7F81E32D2
:1022B000B34B00221A70B7F80A32002B00F01881D5
:1022C000B7F80A32B7F81E221946AF4804F0E2FB0D
:1022D000AE4804F0DFFB0023A7F816322CE0B7F875
:1022E000163207F50872A2F50672D35C1F2B13D9BC
:1022F000B7F8163207F50872A2F50672D35C7E2B8A
:102300000AD8B7F8163207F50872A2F50672D35C40
:10231000184604F0D1FB0AE0B7F8163207F5087248
:10232000A2F50672D35C1946994804F0B3FBB7F8DE
:1023300016320133A7F81632B7F81622B7F81E3254
:102340009A42CCD3934804F015FC0023A7F814322A
:10235000C6E0B7F8143207F50872A2F50672D35C2E
:102360002B2B40F0B680B7F81432013307F5087212
:10237000A2F50672D35C492B40F0AB80B7F814325B
:10238000023307F50872A2F50672D35C502B40F0B9
:10239000A080B7F81432033307F50872A2F506726D
:1023A000D35C442B40F09580B7F81432043307F522
:1023B0000872A2F50672D35C2C2B40F08A80764816
:1023C00004F0D8FBB7F814320533A7F81432002311
:1023D000A7F8123217E0B7F812321A4692001344E7
:1023E0005B009BB2B7F8142207F50871A1F50671DE
:1023F0008A5C13449BB2303BA7F81232B7F8143210
:102400000133A7F81432B7F81422B7F81E329A42F3
:1024100011D2B7F8143207F50872A2F50672D35C30
:102420002F2B08D9B7F8143207F50872A2F50672F7
:10243000D35C392BCFD9B7F81422B7F81E329A42A1
:102440004DD2B7F8143207F50872A2F50672D35CC4
:102450003A2B44D1B7F814320133A7F81432B7F845
:102460001212B7F81E22B7F81432D31A1A464B4884
:1024700004F010FBB7F81422B7F812321A44B7F878
:102480001E329A4218DC464804F074FBB7F8143246
:1024900007F108021344B7F8122211461846FFF755
:1024A000BDFA404804F066FBB7F81422B7F81232C0
:1024B0001344A7F8143212E0B7F81222B7F81E122C
:1024C000B7F81432CB1AD31A1946374804F0E2FA97
:1024D0000EE0B7F814320133A7F8143200E000BF61
:1024E000B7F81422B7F81E32053B9A42FFF631AF17
:1024F00007F50873A3F50773B7F81E1207F1080074
:102500001A68FFF743FC0346002B04D0274804F069
:1025100031FB00238BE0B7F81E1207F10803244AB1
:102520001846FFF733FC0346002B04D0214804F083
:1025300021FB01237BE00A2001F048FED7F8183286
:102540000133C7F81832D7F81822D7F80C329A425C
:10255000FFF48DAEB7F81E321946174804F09AFA08
:10256000B7F81E32002B61D0144804F093FA002310
:10257000A7F8103251E000BFCDCCCCCCE8990008D0
:1025800094040020209A0008409A0008649A0008E9
:102590007C9A0008889A00088C9A0008C09A000863
:1025A000F09A0008209B0008409B0008749B0008DC
:1025B00098990008989B0008B89B0008E49B0008C5
:1025C000B7F8103207F50872A2F50672D35C1F2B1C
:1025D00013D9B7F8103207F50872A2F50672D35C6A
:1025E0007E2B0AD8B7F8103207F50872A2F50672EA
:1025F000D35C184604F060FA0AE0B7F8103207F529
:102600000872A2F50672D35C19460B4804F042FA30
:10261000B7F810320133A7F81032B7F81022B7F824
:102620001E329A42CCD3054804F0A4FA022318467D
:1026300007F50877BD4680BD7C9A0008889A000897
:1026400080B500AF0B4B0022A3F80022094B0022FB
:10265000A3F80222074B0022A3F80422064B002213
:102660001A704FF400720021024804F0BBFB00BF57
:1026700080BD00BF0C0200209404002080B5C2B0D1
:1026800000AF00F0F9F80346002B02D000F000F98B
:10269000E5E0754B1B78DBB2002B00F0DD803B469C
:1026A0004FF480711846FFF731FB0346A7F802315B
:1026B000B7F80231002B00F0D1800023A7F80631D3
:1026C000C2E0B7F806311A1DB7F802319A4280F21B
:1026D000B680B7F8063107F58472A2F58472D35C30
:1026E0002B2B40F0AC80B7F80631013307F584722C
:1026F000A2F58472D35C492B40F0A180B7F8063173
:10270000023307F58472A2F58472D35C502B40F03B
:102710009680B7F80631033307F58472A2F5847208
:10272000D35C442B40F08B80B7F806310533A7F813
:1027300006310023A7F8043117E0B7F804311A4630
:10274000920013445B009BB2B7F8062107F5847131
:10275000A1F584718A5C13449BB2303BA7F8043125
:10276000B7F806310133A7F80631B7F80621B7F8F4
:1027700002319A4211D2B7F8063107F58472A2F5F8
:102780008472D35C2F2B08D9B7F8063107F5847211
:10279000A2F58472D35C392BCFD9B7F80621B7F8EC
:1027A00002319A424BD2B7F8063107F58472A2F58E
:1027B0008472D35C3A2B42D1B7F806310133A7F8C3
:1027C0000631B7F804311946284804F063F9284B5C
:1027D00000221A8013E0B7F806315A1CA7F8062128
:1027E0001946234B1B885A1C90B2214A10801A4666
:1027F00007F58473A3F58473595C1E4B9954B7F89D
:102800000621B7F802319A420AD2194B1B88B7F851
:1028100004219A4204D9164B1B88B3F5007FDAD302
:10282000134B1B88B7F804219A4208D1104B1B8820
:1028300019461048FFF7F2F80D4B00221A80B7F83E
:1028400006310133A7F80631B7F80621B7F802318F
:102850009A42FFF436AF02E000BF00E000BF07F588
:102860008477BD4680BD00BF94040020FC9B000817
:10287000A4060020A806002080B400AF034B1B78FC
:10288000DBB21846BD465DF8047B70479C0400200F
:1028900080B5ADF5027D00AF1A4B1B78DBB2002B83
:1028A0002BD0194B1B88A7F80632B7F80632002B3D
:1028B0000BD0B7F80632B3F5007F06D8B7F806227A
:1028C0003B1D1249184604F03CFB0E4B00221A70C7
:1028D0000D4B00221A80B7F80632002B0ED0B7F845
:1028E000063219460A4804F0D5F8B7F806223B1D0F
:1028F00011461846FFF792F800E000BF07F502778F
:10290000BD4680BD9C040020A0060020A00400203D
:102910002C9C000880B582B000AF0023FB710B4BEC
:1029200042F210721A60094B00221A71074B002202
:102930009A60074B01221A7001F062FC0346054AB7
:102940001360FB7918460837BD4680BDAC080020EF
:10295000A8080020B808002080B584B000AF7860D7
:102960000B467B800023FB7307F10F03184600F032
:10297000FDF80346002B01D0012312E0FB7B002B66
:1029800001D103230DE0094B02221A7001F038FC3B
:102990000346074A13607B881946786800F01CFBE1
:1029A000034618461037BD4680BD00BFA80800206A
:1029B000BC08002080B500AF0B4B00221A700B4BF7
:1029C00000221A600A4B00221A600A4B42F210726F
:1029D0001A60084B00221A71064B00229A60FFF71A
:1029E00099FF0346184680BDA8080020B8080020BB
:1029F000BC080020AC08002080B582B000AF786031
:102A00003960386800F0A6FA0346002B01D0042391
:102A100012E0786800F09EFA0346002B01D00423F0
:102A20000AE0074B1B78002B01D1022304E0396830
:102A3000786800F09FFA034618460837BD4680BD07
:102A4000A808002080B584B000AF7860396038688D
:102A500000F080FA0346002B01D0042347E0142243
:102A60000021386804F0BEF93B6819467868FFF722
:102A7000C3FF0346FB73FB7B002B01D0FB7B36E0DF
:102A80003B681B88184600F0C1F803461A463B68AD
:102A90005A803B685B88184600F0D2F802463B68D3
:102AA0005A60154B1B79012B1BD13B685B68124A9E
:102AB00012681146184600F0E7F8F0EE407A3B68DD
:102AC000C3ED027A0D4B1B78032B0AD13B68D3ED83
:102AD000027AB0EE670A00F0FBF803461A463B683C
:102AE0009A8101F08DFB02463B681A61002318466B
:102AF0001037BD4680BD00BFAC080020A8080020EC
:102B000080B582B000AF7860786800F023FA0346A1
:102B1000002B01D0042304E0044B1A687B681A6080
:102B2000002318460837BD4680BD00BFAC08002012
:102B300080B582B000AF7860786800F00BFA034689
:102B4000002B01D004230AE0074B1B79002B0CBF9C
:102B500001230023DBB21A467B681A700023184653
:102B60000837BD4680BD00BFAC08002080B584B0EA
:102B700000AF7860786800F0EDF90346002B01D0D3
:102B800004231BE00F4B1B68002B04D17B68002241
:102B90001A70002312E001F033FB0246094B1B6858
:102BA000D31AFB60FB6847F22F5293428CBF01237C
:102BB0000023DBB21A467B681A70002318461037D0
:102BC000BD4680BDB808002080B582B000AF0E4B76
:102BD0001B68002B02D147F2305311E001F010FBCB
:102BE0000246094B1B68D31A7B607B6847F22F5261
:102BF000934201D9002303E07B68C3F5EA433033F5
:102C000018460837BD4680BDB808002080B483B0A0
:102C100000AF0346FB80FB8840F6E44202FB03F36F
:102C2000064A82FB03121A44D212DB17D31A9BB254
:102C300018460C37BD465DF8047B7047810008805C
:102C400080B485B000AF0346FB80FB88002B04D026
:102C5000FB8840F6E342934201D900230DE0FB8854
:102C6000C3F54E6304331A4642F2107303FB02F2BB
:102C7000FB88B2FBF3F3FB60FB6818461437BD46D4
:102C80005DF8047B7047000080B483B000AF7860CB
:102C900039603B68002B02D1DFED0B6A0BE07B68EB
:102CA00007EE903AB8EE677A3B6807EE903AF8EE96
:102CB000677AC7EE276AF0EE667AB0EE670A0C37DD
:102CC000BD465DF8047B7047000000000000000076
:102CD00080B584B000AF87ED010AD7ED017AF5EE3B
:102CE000C07AF1EE10FA01D8002334E0DFED1E0ABD
:102CF00097ED010A06F014F910EE103A1846FDF7A8
:102D00003BFC17A3D3E90023FDF78EFC02460B46DC
:102D100010461946FDF760FF0346FB60D7ED037AC6
:102D2000F5EEC07AF1EE10FA03D54FF00003FB6028
:102D30000AE0D7ED037A9FED0D7AF4EEC77AF1EE53
:102D400010FA01DD0A4BFB60D7ED037AFCEEE77A5F
:102D500017EE903A9BB218461037BD4680BD00BFB3
:102D60008B3D0F4988265D40DE3731C000FF7F472D
:102D700000FF7F4780B58AB002AF3B4B1B78002B2A
:102D80000AD13A4803F0F6FE374B01221A70384B4D
:102D900000221A70002362E0354B1B78022B3BD8CF
:102DA00007F108030A21184600F072F80346002BC9
:102DB0002AD0BA1D07F108031146184600F0DAF8C8
:102DC0000346002B19D12A4B1B781A46F988294B48
:102DD00023F81210264B1B780133DAB2244B1A70F9
:102DE000234B1B781946FB881A460A230093134687
:102DF0000322214803F04EFE0CE01D4B1B781946C0
:102E00001E4803F047FE05E0194B1B7819461C4885
:102E100003F040FE002322E01A4803F0ABFE03213A
:102E20001448FFF799FD0346FB770F4B00221A70F9
:102E30000F4B00221A70FB7F002B0AD13B4618462D
:102E4000FFF75EFE3B6819460F4803F023FE01239F
:102E500005E0FB7F19460D4803F01CFE00231846D1
:102E60002037BD4680BD00BFC0080020B09C0008D0
:102E7000C1080020C4080020D89C0008149D000848
:102E8000449D0008749D0008AC9D0008DC9D00086E
:102E900080B584B000AF78600B46FB707B68002B78
:102EA00002D0FB78002B01D1002344E00023FB7209
:102EB0003CE0234B00221A700521002000F0CCF9E1
:102EC0000346BB72BB7A002B07D0FB7ABA7A19464D
:102ED0001C4803F0DFFD00232DE01B4BFB6002E0EC
:102EE000FB68013BFB60164B1B78DBB2002B02D169
:102EF000FB68002BF4D1124B1B78DBB2002B0BD0FC
:102F0000FB7A5B007A681344104A128892B21A80E6
:102F1000322001F043F906E0FB7A19460C4803F031
:102F2000B9FD002307E0FB7A0133FB72FA7AFB78E4
:102F30009A42BED3012318461037BD4680BD00BF5C
:102F4000C6090020049E0008A0860100C4090020D4
:102F5000349E000880B483B000AF78607B68002B9B
:102F600001D1042300E0002318460C37BD465DF86C
:102F7000047B704780B485B000AF7860396000236F
:102F8000FB607B68002B02D03B68002B01D109233A
:102F90001AE00023FB720BE0FB7A5B007A681344B3
:102FA0001B881A46FB681344FB60FB7A0133FB72F3
:102FB000FB7A092BF0D9FB68064AA2FB0323DB0846
:102FC0009AB23B681A80002318461437BD465DF854
:102FD000047B7047CDCCCCCC80B586B000AF786098
:102FE0000B467B8000237B617868FFF7B3FF0346C5
:102FF000002B02D17B88032B01D004233AE000236D
:103000007B731AE07B7B5B007A6813441B8818464D
:10301000FFF7FCFD0346FB81FB891846FFF710FE16
:1030200038613B69002B01D1012323E07A693B69B8
:1030300013447B617B7B01337B737B7B9BB27A8800
:103040009A42DFD8F9897B883A690C4803F022FD5F
:103050007B887A69B2FBF3F3094A1360084B0122BB
:103060001A7101F0CDF80346054A9360054B03221F
:103070001A70002318461837BD4680BD549E0008BC
:10308000AC080020A808002080B483B000AF03463D
:10309000FB71FB79002B01D1044B00E000231846A3
:1030A0000C37BD465DF8047B704700BF002001402F
:1030B00080B584B000AF0346FB710B46BB7113466D
:1030C0007B71FB791846FFF7DFFFF860FB68002B88
:1030D00001D102233BE0BB79112B01D9032336E058
:1030E000BB79092B18D8BB791A4652001344BB721E
:1030F000FB681A69BB7A072101FA03F3DB431A4024
:10310000FB681A61FB681B697979BA7A01FA02F2E5
:103110001A43FB681A6119E0BB790A3BDBB21A4615
:1031200052001344FB72FB68DA68FB7A072101FA4C
:1031300003F3DB431A40FB68DA60FB68DB687979EC
:10314000FA7A01FA02F21A43FB68DA6000231846A1
:103150001037BD4680BD000080B584B000AF034687
:10316000FB71FB791846FFF78FFFB860BB68002B37
:1031700001D102234FE0BB689B6823F00102BB68CA
:103180009A60274B5B68264A23F440335360244BF4
:103190005B68234A43F480335360BB6800225A6063
:1031A000BB685A68BB685A60BB685B6843F0200222
:1031B000BB685A60BB6800229A60BB689B6823F0BA
:1031C0007062BB689A60BB689B6823F04052BB6822
:1031D0009A60BB689B6843F48062BB689A60002376
:1031E000FB7308E0F97BFB7904221846FFF760FFC8
:1031F000FB7B0133FB73FB7B122BF3D9BB680022F3
:10320000DA62BB6800221A63BB6800225A63BB689B
:1032100000221A60002318461037BD4680BD00BF4B
:103220000023014080B584B000AF0346FB71FB79F9
:103230001846FFF729FFF860FB68002B01D1022335
:1032400006E0FB689B6843F00102FB689A6000237C
:1032500018461037BD4680BD80B584B000AF034628
:103260000A46FB711346BB71FB791846FFF70CFF4A
:10327000B860BB68002B01D1022322E0BB79112B7F
:1032800001D903231DE0BB79102B02D11023FB735E
:1032900007E0BB79112B02D11123FB7301E0BB794D
:1032A000FB73BB680022DA62FA7BBB685A63BB68B7
:1032B00000221A60BB689B6843F08042BB689A603A
:1032C000002318461037BD4680BD80B584B000AFDE
:1032D00003463960FB713B68002B01D101231BE0E1
:1032E000FB791846FFF7D0FEF860FB68002B01D190
:1032F000022311E0FB681B685B0803F00103002B4D
:1033000001D1052308E0FB68DB6C9BB2C3F30B0320
:103310009AB23B681A80002318461037BD4680BD1C
:1033200080B483B000AF03463960FB713B68002B6B
:1033300001D1012309E0FB79002B05D1064A3B6846
:10334000136000BF002300E0022318460C37BD467F
:103350005DF8047B704700BFCC08002080B500AF4B
:10336000074B1B685B0803F00103012B06D1054BDB
:103370001B68002B02D0034B1B68984700BF80BD21
:1033800000200140CC08002080B485B000AF034687
:10339000FB710B46BB7113467B71BB795B0003224B
:1033A00002FA03F3DB43FB60FB79052B7AD801A219
:1033B00052F823F0CD330008F1330008153400082B
:1033C000393400085D34000881340008394B1A682C
:1033D0003849FB6813400B60364B1B687979BA7922
:1033E000520001FA02F21146324A0B4313605AE0CE
:1033F000314B1A683049FB6813400B602E4B1B6839
:103400007979BA79520001FA02F211462A4A0B433D
:10341000136048E0294B1A682849FB6813400B6089
:10342000264B1B687979BA79520001FA02F21146EB
:10343000224A0B43136036E0214B1A682049FB688F
:1034400013400B601E4B1B687979BA79520001FA60
:1034500002F211461A4A0B43136024E0194B1A6812
:103460001849FB6813400B60164B1B687979BA79D1
:10347000520001FA02F21146124A0B43136012E0A5
:10348000114B1A681049FB6813400B600E4B1B6808
:103490007979BA79520001FA02F211460A4A0B43CD
:1034A000136000E000BF00BF1437BD465DF8047B29
:1034B000704700BF000002400004024000080240C4
:1034C000000C024000100240001C024080B483B097
:1034D00000AF0346FB710B46BB7113467B71FB7952
:1034E000052B00F29F8001A252F823F00535000859
:1034F000353500086535000895350008C5350008E4
:10350000F53500087B79012B09D14A4B5A68BB7904
:10351000012101FA03F3474913434B6083E0454B14
:103520005A68BB79012101FA03F3DB434149134097
:103530004B6078E07B79012B09D13F4B5A68BB790E
:10354000012101FA03F33C4913434B606BE03A4B12
:103550005A68BB79012101FA03F3DB433649134072
:103560004B6060E07B79012B09D1344B5A68BB7901
:10357000012101FA03F3314913434B6053E02F4B10
:103580005A68BB79012101FA03F3DB432B4913404D
:103590004B6048E07B79012B09D1294B5A68BB79F4
:1035A000012101FA03F3264913434B603BE0244B0E
:1035B0005A68BB79012101FA03F3DB432049134028
:1035C0004B6030E07B79012B09D11E4B5A68BB79E7
:1035D000012101FA03F31B4913434B6023E0194B0C
:1035E0005A68BB79012101FA03F3DB431549134003
:1035F0004B6018E07B79012B09D1134B5A68BB79DA
:10360000012101FA03F3104913434B600BE00E4B09
:103610005A68BB79012101FA03F3DB430A491340DD
:103620004B6000E000BF00BF0C37BD465DF8047B77
:10363000704700BF00000240000402400008024042
:10364000000C024000100240001C024080B485B013
:1036500000AF0346FB710B46BB7113467B71BB7910
:103660005B00032202FA03F3DB43FB60FB79052BCB
:103670007AD801A252F823F091360008B536000836
:10368000D9360008FD360008213700084537000804
:10369000394B9A683849FB6813408B60364B9B68FE
:1036A0007979BA79520001FA02F21146324A0B4393
:1036B00093605AE0314B9A683049FB6813408B6045
:1036C0002E4B9B687979BA79520001FA02F21146C1
:1036D0002A4A0B43936048E0294B9A682849FB68C3
:1036E00013408B60264B9B687979BA79520001FAB6
:1036F00002F21146224A0B43936036E0214B9A684E
:103700002049FB6813408B601E4B9B687979BA791E
:10371000520001FA02F211461A4A0B43936024E068
:10372000194B9A681849FB6813408B60164B9B68CD
:103730007979BA79520001FA02F21146124A0B4322
:10374000936012E0114B9A681049FB6813408B603C
:103750000E4B9B687979BA79520001FA02F2114650
:103760000A4A0B43936000E000BF00BF1437BD4618
:103770005DF8047B704700BF000002400004024077
:1037800000080240000C024000100240001C0240F1
:1037900080B485B000AF0346FB710B46BB71134686
:1037A0007B71BB795B00032202FA03F3DB43FB600E
:1037B000FB79052B7AD801A252F823F0D5370008FF
:1037C000F93700081D38000841380008653800083E
:1037D00089380008394BDA683849FB681340CB60F8
:1037E000364BDB687979BA79520001FA02F2114658
:1037F000324A0B43D3605AE0314BDA683049FB68F8
:103800001340CB602E4BDB687979BA79520001FA0C
:1038100002F211462A4A0B43D36048E0294BDA688A
:103820002849FB681340CB60264BDB687979BA796D
:10383000520001FA02F21146224A0B43D36036E0ED
:10384000214BDA682049FB681340CB601E4BDB68D4
:103850007979BA79520001FA02F211461A4A0B43F9
:10386000D36024E0194BDA681849FB681340CB6039
:10387000164BDB687979BA79520001FA02F21146E7
:10388000124A0B43D36012E0114BDA681049FB680F
:103890001340CB600E4BDB687979BA79520001FA9C
:1038A00002F211460A4A0B43D36000E000BF00BF9A
:1038B0001437BD465DF8047B704700BF000002402E
:1038C0000004024000080240000C024000100240C8
:1038D000001C024080B483B000AF0346FB710B466E
:1038E000BB7113467B717B79012B4FD1FB79052B83
:1038F00000F2A08001A252F823F000BF15390008A1
:10390000293900083D390008513900086539000897
:10391000793900084C4B5A69BB79012101FA03F34C
:10392000494913434B6188E0484B5A69BB790121EF
:1039300001FA03F3454913434B617EE0444B5A6956
:10394000BB79012101FA03F3414913434B6174E050
:10395000404B5A69BB79012101FA03F33D491343F6
:103960004B616AE03C4B5A69BB79012101FA03F3D0
:10397000394913434B6160E0384B5A69BB790121E7
:1039800001FA03F3354913434B6156E0FB79052BEC
:1039900052D801A252F823F0B1390008C739000803
:1039A000DD390008F3390008093A00081F3A000819
:1039B000254B5A69BB79012101FA03F3DB43224904
:1039C00013404B6139E0214B5A69BB79012101FA5F
:1039D00003F3DB431D4913404B612EE01C4B5A6936
:1039E000BB79012101FA03F3DB43194913404B6111
:1039F00023E0184B5A69BB79012101FA03F3DB4339
:103A0000144913404B6118E0134B5A69BB790121EB
:103A100001FA03F3DB43104913404B610DE00F4BF8
:103A20005A69BB79012101FA03F3DB430B491340C7
:103A30004B6102E000BF00E000BF00BF0C37BD4695
:103A40005DF8047B704700BF0000024000040240A4
:103A500000080240000C024000100240001C02401E
:103A600080B487B000AF0346FB710B46BB711346B1
:103A70007B71BB79072B03D8BB799B00FB7504E0F6
:103A8000BB79083BDBB29B00FB75FB7D0F2202FA82
:103A900003F3DB433B61FB79052B00F2998001A224
:103AA00052F823F0BD3A0008EB3A0008193B000831
:103AB000473B0008753B0008A33B0008BB79072B78
:103AC00001D8474B00E0474BFB60FB681A683B6935
:103AD0001A40FB681A60FB681B687979FA7D01FA65
:103AE00002F21A43FB681A6073E0BB79072B01D816
:103AF0003D4B00E03D4BFB60FB681A683B691A4098
:103B0000FB681A60FB681B687979FA7D01FA02F29A
:103B10001A43FB681A605CE0BB79072B01D8344B71
:103B200000E0344BFB60FB681A683B691A40FB6895
:103B30001A60FB681B687979FA7D01FA02F21A4370
:103B4000FB681A6045E0BB79072B01D82A4B00E0DF
:103B50002A4BFB60FB681A683B691A40FB681A60D5
:103B6000FB681B687979FA7D01FA02F21A43FB6857
:103B70001A602EE0BB79072B01D8214B00E0214BC6
:103B8000FB60FB681A683B691A40FB681A60FB68B7
:103B90001B687979FA7D01FA02F21A43FB681A6010
:103BA00017E0BB79072B01D8174B00E0174BFB60E0
:103BB000FB681A683B691A40FB681A60FB681B685F
:103BC0007979FA7D01FA02F21A43FB681A6000E083
:103BD00000BF00BF1C37BD465DF8047B704700BFC7
:103BE000200002402400024020040240240402403D
:103BF0002008024024080240200C0240240C02400D
:103C00002010024024100240201C0240241C0240CC
:103C100080B483B000AF0346FB71FB79022B0AD05E
:103C2000022B0ADC002B02D0012B02D005E0064B50
:103C300004E0064B02E0064B00E0002318460C3778
:103C4000BD465DF8047B70470054004000580040BA
:103C5000005C004080B584B000AF0346FB71FB7987
:103C60001846FFF7D5FFF860FB68002B01D102234F
:103C700049E0FB681B6823F00102FB681A60FB68DF
:103C80001B6843F40042FB681A60FB681B6823F45E
:103C90000042FB681A60FB685B6823F03F02FB6828
:103CA0005A60FB685B6843F01002FB685A60FB686F
:103CB0000022DA6100237B8150237B81FB68DB6972
:103CC00023F40042FB68DA61FB68DA697B891A43F6
:103CD000FB68DA6100233B8111233B813B8903F0C0
:103CE0003F02FB681A62FB6800229A60FB689B68CF
:103CF00043F48042FB689A60FB681B6843F0010252
:103D0000FB681A60002318461037BD4680BD80B599
:103D100086B000AF3A601A460346FB710B46BB7192
:103D20001346BB80FB791846FFF772FFF860FB680B
:103D3000002B01D102236AE03B6A7B61FB681B68B0
:103D400043F48072FB681A6007E07B69013B7B618A
:103D50007B69002B01D1032359E0FB685B6903F009
:103D60000103002BF1D0BB795A00FB681A613B6A52
:103D70007B6107E07B69013B7B617B69002B01D1A3
:103D8000032344E0FB685B695B0803F00103002B3D
:103D9000F0D0FB689B6900237B821BE03B6A7B6160
:103DA00007E07B69013B7B617B69002B01D1032329
:103DB0002DE0FB685B69DB0903F00103002BF0D009
:103DC0007B8A3A6813441B781A46FB681A617B8A1F
:103DD00001337B827A8ABB889A42DFD33B6A7B615C
:103DE00007E07B69013B7B617B69002B01D10323E9
:103DF0000DE0FB685B699B0803F00103002BF0D02A
:103E0000FB681B6843F40072FB681A6000231846C5
:103E10001837BD4680BD80B586B000AF3A601A46FF
:103E20000346FB710B46BB711346BB80FB791846FA
:103E3000FFF7EEFEF860FB68002B01D102236BE078
:103E40003B6A7B61FB681B6843F48062FB681A6015
:103E5000FB681B6843F48072FB681A6007E07B69AB
:103E6000013B7B617B69002B01D1032354E0FB689C
:103E70005B6903F00103002BF1D0BB795B0043F0D9
:103E80000102FB681A613B6A7B6107E07B69013BC9
:103E90007B617B69002B01D103233DE0FB685B69FB
:103EA0005B0803F00103002BF0D0FB689B69002343
:103EB0007B8226E07A8ABB88013B9A4205D1FB6867
:103EC0001B6823F48062FB681A603B6A7B6107E031
:103ED0007B69013B7B617B69002B01D103231BE0E4
:103EE000FB685B699B0903F00103002BF0D0FB68C2
:103EF00019697B8A3A681344CAB21A707B8A013303
:103F00007B827A8ABB889A42D4D3FB681B6843F4CD
:103F10000072FB681A60002318461837BD4680BD42
:103F200080B500AF044B1B68002B02D0024B1B680E
:103F3000984700BF80BD00BFD008002080B500AF0B
:103F4000044B1B68002B02D0024B1B68984700BF34
:103F500080BD00BFD408002080B483B000AF03460A
:103F6000FB71FB79EF2B0CD8FB7903F01F03084999
:103F7000FA795209D2B21046012202FA03F341F84B
:103F8000203000BF0C37BD465DF8047B704700BF92
:103F900000E100E090B484B000AF0446084611464A
:103FA0001A462346FB710346BB710B467B711346D1
:103FB0003B710023FB73FB79EF2B40D8BB79033BAC
:103FC000042B31D801A252F823F000BFE73F0008CC
:103FD00015400008ED3F000801400008E13F0008DF
:103FE0003B79FB7323E07B79FB7320E097F9053085
:103FF0009B005AB297F9043013435BB2FB7316E08F
:1040000097F90530DB005AB297F9043013435BB2DD
:10401000FB730CE097F905305B005AB297F9043056
:1040200013435BB2FB7302E00023FB7300BF06493E
:10403000FB79FA7B1201D2B20B4483F8002300BF54
:104040001037BD4690BC704700E100E080B483B0FB
:1040500000AF0346FB71084B084A1A60FB791B024C
:10406000054A43F0BF6343F40033136000BF0C37CD
:10407000BD465DF8047B70470CED00E00000FA05DA
:1040800080B483B000AF03460A46FB711346BB7190
:10409000FB79032B32D801A252F823F0AD4000087F
:1040A000C1400008D5400008E9400008174B1A68D5
:1040B000BB79012101FA03F3144913430B601EE09D
:1040C000134B1A68BB79012101FA03F3104913431A
:1040D0000B6014E00F4B1A68BB79012101FA03F35E
:1040E0000C4913430B600AE00B4B1A68BB790121A2
:1040F00001FA03F3084913430B6000E000BF00BF5F
:104100000C37BD465DF8047B704700BF3038024075
:1041100034380240403802404438024080B400AF96
:10412000124B1B68114A43F00103136000BF0F4B91
:104130001B6803F00203002BF9D00D4B1B680C4ADF
:1041400023F0010313600A4B1B68094A23F00203A2
:10415000136000BF064B1B6803F00C03002BF9D162
:1041600000BF00BFBD465DF8047B704700380240C9
:104170000838024080B400AF074B40F2CF725A605B
:10418000054B00229A60044B03221A6000BFBD4613
:104190005DF8047B704700BF10E000E080B584B09C
:1041A00000AF78607B68002B0CD000F029F8F86035
:1041B00000BF00F025F80246FB68D31A7A689A42DD
:1041C000F7D800E000BF1037BD4680BD80B485B091
:1041D00000AF78600023FB6003E000BFFB680133A1
:1041E000FB607B684FF4FA6203FB02F2FB689A42C1
:1041F000F3D800BF00BF1437BD465DF8047B70479D
:1042000080B400AF034B1B681846BD465DF8047BC5
:10421000704700BFD808002080B582B000AF78603A
:104220003960FFF7EDFF02467B681B68D31A3A68D6
:104230009A4206D8FFF7E4FF02467B681A60012322
:1042400000E0002318460837BD4680BD80B400AFAB
:10425000044B1B680133034A136000BFBD465DF881
:10426000047B7047D808002080B485B000AFF860A8
:104270007B600B46FB7213463B813B89013B1A4630
:10428000FB689A627B685A1EFB68DA62FB7A032B32
:1042900062D801A252F823F0A9420008D5420008D2
:1042A000014300082D430008FB689B6943F060024E
:1042B000FB689A61FB689B6943F00802FB689A619E
:1042C000FB681B6A43F00102FB681A62FB6800226C
:1042D0005A6341E0FB689B6943F4C042FB689A6102
:1042E000FB689B6943F40062FB689A61FB681B6A88
:1042F00043F01002FB681A62FB6800229A632BE00D
:10430000FB68DB6943F06002FB68DA61FB68DB692C
:1043100043F00802FB68DA61FB681B6A43F48072B1
:10432000FB681A62FB680022DA6315E0FB68DB6950
:1043300043F4C042FB68DA61FB68DB6943F4006266
:10434000FB68DA61FB681B6A43F48052FB681A62FF
:10435000FB6800221A6400BFFB681B6843F0800200
:10436000FB681A60FB685B6943F00102FB685A61F5
:10437000FB681B6923F00102FB681A61FB681B687C
:1043800043F00102FB681A6000BF1437BD465DF8B8
:10439000047B704780B485B000AFF8600B467A604C
:1043A000FB72FB7A032B1BD801A252F823F000BF4B
:1043B000C1430008C9430008D1430008D94300089D
:1043C000FB687A685A630BE0FB687A689A6307E0D7
:1043D000FB687A68DA6303E0FB687A681A6400BFF6
:1043E00000BF1437BD465DF8047B704780B483B0CE
:1043F00000AF0346FB71FB79002B02D0012B02D0EA
:1044000003E0054B02E0054B00E0002318460C37A3
:10441000BD465DF8047B7047001001400044004039
:1044200080B58AB000AF0346FB71574B3B61FB7907
:104430001846FFF7DBFFF860FB68002B01D1022371
:104440009EE0FB79002B02D0012B0CD017E04FF43B
:10445000E1337B6200233B620023FB610023BB61ED
:1044600000237B610DE04FF4E1337B6200233B626C
:104470000023FB610023BB6100237B6101E0022379
:104480007EE0FA68D36823F40053D3607B6A5A084D
:104490003B691A447B6AB2FBF3F2FB689A60FA68E4
:1044A000D36823F48053D360FA68D36823F480631D
:1044B000D360FA68D36823F40073D360FA68D368D2
:1044C00023F40043D360FA68D36823F00803D36071
:1044D000FA68D36823F00403D360FA68D36823F042
:1044E0002003D3607B6903F00103D9B2FA68D36873
:1044F00061F3CF33D3603B6A03F00103D9B2FA68AA
:10450000D36861F30C33D360BB69002B12D0FA6817
:10451000D36843F48063D360BB69022B05D1FA688A
:10452000D36843F40073D36004E0FA68D36823F4DB
:104530000073D360FB681B6923F44052FB681A6167
:10454000FB69012B05D1FB681B6943F40052FB6832
:104550001A61FA68D36843F00803D360FA68D36835
:1045600043F00403D360FA68D36843F02003D360B8
:10457000FB681B68BB60FB685B68BB60BB680023B3
:1045800018462837BD4680BD0024F40080B586B0AB
:1045900000AF03463960FB711346BB713B68002BCB
:1045A00002D0BB79002B01D101232DE0FB79184605
:1045B000FFF71CFFF860FB68002B01D1022323E00A
:1045C0000023FB741BE0FB7C3A6813441B781A46FB
:1045D000FB685A600E4B7B6107E07B69013B7B61A6
:1045E0007B69002B01D103230EE0FB681B689B094C
:1045F00003F00103002BF0D0FB7C0133FB74FA7C49
:10460000BB799A42DFD3002318461837BD4680BDD8
:10461000A086010080B584B000AF0346FB71FB7932
:104620001846FFF7E3FEF860FB68002B01D1022378
:1046300002E0FB685B68DBB218461037BD4680BD00
:1046400080B584B000AF0346FB71FB791846FFF7D5
:10465000CDFEF860FB68002B01D1022305E0FA686B
:10466000D36843F40053D360002318461037BD4687
:1046700080BD000080B483B000AF03463960FB7199
:104680003B68002B01D1012310E0FB79002B02D005
:10469000012B04D007E0084A3B68136005E0074A95
:1046A0003B68136001E0022300E0002318460C374A
:1046B000BD465DF8047B7047DC080020E008002060
:1046C00080B500AF074B1B685B0903F00103012BAA
:1046D00006D1054B1B68002B02D0034B1B68984783
:1046E00000BF80BD00100140DC08002080B500AF95
:1046F000074B1B685B0903F00103012B06D1054B37
:104700001B68002B02D0034B1B68984700BF80BD7D
:1047100000440040E008002080B584B000AF0346AC
:104720000A46FB711346BB71FB791846FFF75EFE24
:10473000B860BB68002B01D1022315E00C4BFB6075
:1047400007E0FB68013BFB60FB68002B01D1032302
:104750000AE0BB681B68DB0903F00103002BF0D003
:10476000BA79BB685A60002318461037BD4680BD31
:10477000A086010080B582B000AF78607B68DBB2B4
:1047800019460020FFF7C8FF7B6818460837BD466A
:1047900080BD80B586B000AFF860B9607A60786897
:1047A000FBF77EFD0346FB82FB8A1B0A99B2BB68BE
:1047B0001B885A1C90B2BA6810801A46FB681344D2
:1047C000CAB21A70BB681B885A1C91B2BA681180B1
:1047D0001A46FB681344FA8AD2B21A70BB681B8867
:1047E0001A46FB6813447968184602F0A2FBBB68BE
:1047F0001A88FB8A13449AB2BB681A8000BF183724
:10480000BD4680BD80B584B000AF78607868FBF7A6
:1048100047FD0346FB73FB7B0C33DBB218461037B6
:10482000BD4680BD80B584B000AF78600B46FB709C
:104830001346BB707868FBF733FD0346BB73BA7B46
:10484000BB781344DBB20233FB73FB78002B02D03E
:10485000FB7B0233FB73FB7B18461037BD4680BDE4
:1048600080B584B000AF78607868FBF719FD034627
:10487000FB73FB7B0533DBB218461037BD4680BDAA
:1048800080B584B000AF78600B467B807B8819468A
:104890000F4802F0FFF80F4802F06CF97B881946C8
:1048A0007868FDF749FC0346FB73FB7B002B04D1C2
:1048B000094802F05FF9002305E0FB7B1946074831
:1048C00002F0E8F8012318461037BD4680BD00BF4E
:1048D000809E0008A09E0008A49E0008D09E0008AC
:1048E00080B584B000AF78607B68002B03D07B6814
:1048F0001B78002B04D13D4802F03CF9022371E003
:104900007868FBF7CDFC0346FB81FB89322B07D986
:10491000FB8932221946364802F0BCF8022361E0D6
:104920007868FFF76FFF03467B737B7B0233DC2BDA
:1049300004D9304802F01EF9032353E02E4B002225
:104940001A802D4B1B885A1C91B22B4A11801A4693
:104950002A4B10219954284B1B885A1C91B2264A85
:1049600011801946254A7B7B5354254A2249234806
:10497000FFF70FFF204B1B885A1C91B21E4A118073
:104980001A461E4B042199541B4B1B885A1C91B28A
:10499000194A11801A46194B02219954164B1B884B
:1049A0005A1C91B2144A11801A46144BFF21995493
:1049B000114B1B885A1C91B20F4A11801A460F4B9B
:1049C000FF2199547A680C490C48FFF7E2FE796898
:1049D0000C4802F05FF8084B1B8819460748FFF7A0
:1049E0004FFF034618461037BD4680BD049F0008A0
:1049F000209F0008489F0008C0090020E40800200C
:104A0000689F0008709F000880B586B000AFF8600E
:104A10007A601A460B46FB721346BB72FB68002B8A
:104A20000CD0FB681B78002B08D07B68002B05D0CE
:104A3000BB7A002B02D0FB7A022B04D94F4802F03C
:104A400099F8022396E0F868FBF72AFC0346BB823C
:104A5000BB8A402B07D9BB8A40221946484802F03E
:104A600019F8022386E0BB7AC82B07D9BB7AC82283
:104A70001946444802F00EF802237BE0BA7AFB7A2A
:104A80001946F868FFF7CEFE0346FB74FB7C023341
:104A9000DC2B04D93C4802F06DF803236AE03B4B61
:104AA00000221A80FB7A002B01D0322100E0302155
:104AB000364B1B885A1C90B2344A10801A46344B2D
:104AC0009954324B1B885A1C91B2304A11801946B6
:104AD0002F4AFB7C5354FA682C492D48FFF759FEA6
:104AE000FB7A002B22D02B4B1B889BB21B0A99B25E
:104AF000264B1B885A1C90B2244A10801A46C9B211
:104B0000234B9954234B1B8899B2204B1B885A1C6A
:104B100090B21E4A10801A46C9B21D4B99541D4BC3
:104B20001B889BB201339AB21A4B1A800023FB7583
:104B30000FE0FB7D7A681A44144B1B88591C88B21D
:104B40001249088019461278114B5A54FB7D0133E3
:104B5000FB75FA7DBB7A9A42EBD3BB7A1A46F968A9
:104B60000D4801F097FF094B1B8819460848FFF7CD
:104B700087FE034618461837BD4680BDA49F00082F
:104B8000C89F0008F09F000814A00008C00900207A
:104B9000E40800200000002034A0000880B584B0A4
:104BA00000AF78607B68002B03D07B681B78002BFC
:104BB00004D13D4801F0DEFF022371E07868FBF785
:104BC0006FFB0346FB81FB89402B07D9FB89402201
:104BD0001946364801F05EFF022361E07868FFF76E
:104BE0003FFE03467B737B7B0233DC2B04D93048CA
:104BF00001F0C0FF032353E02E4B00221A802D4BFF
:104C00001B885A1C91B22B4A11801A462A4B8221CA
:104C10009954284B1B885A1C91B2264A1180194678
:104C2000254A7B7B5354254B1B889BB21B0A99B2A8
:104C3000204B1B885A1C90B21E4A10801A46C9B2DB
:104C40001D4B99541D4B1B8899B21A4B1B885A1C3B
:104C500090B2184A10801A46C9B2174B9954174B94
:104C60001B889BB201339AB2144B1A807A6811499F
:104C70001148FFF78EFD0F4B1B885A1C91B20D4A4D
:104C800011801A460C4B0121995479680C4801F0A7
:104C900001FF084B1B8819460748FFF7F1FD034643
:104CA00018461037BD4680BD74A00008C89F000894
:104CB0009CA00008C0090020E4080020000000209B
:104CC000C0A0000880B500AF114B00221A80104B25
:104CD0001B885A1C91B20E4A11801A460D4BC021F6
:104CE00099540B4B1B885A1C91B2094A11801A46E1
:104CF000084B00219954084801F03CFF044B1B88E5
:104D000019460448FFF7BCFD0346184680BD00BFA6
:104D1000C0090020E4080020F4A0000880B500AF1E
:104D200004490020FEF7D1FA034B01221A7000BF9C
:104D300080BD00BFC4090020C609002080B500AFB7
:104D4000FFF7ECF900210020FFF79AF9012100207C
:104D5000FFF796F904210320FFF792F911210220B1
:104D6000FFF78EF908210320FFF78AF915210220A9
:104D7000FFF786F900210220FFF782F900BF80BD0E
:104D800080B500AF012200210020FEF7FDFA0022CD
:104D900000210020FEF79AFB012200210020FEF7EF
:104DA00055FC032201210020FEF7EEFA0222092120
:104DB0000020FEF7E9FA02220A210020FEF7E4FAB9
:104DC000072209210020FEF74BFE07220A210020BE
:104DD000FEF746FE022202210020FEF7D5FA02224B
:104DE00003210020FEF7D0FA072202210020FEF75F
:104DF00037FE072203210020FEF732FE022208219F
:104E00000120FEF7C1FA042208210120FEF728FE46
:104E1000012208210120FEF759FB0222082101206E
:104E2000FEF714FC012208210120FEF7B1FC02224A
:104E300009210120FEF7A8FA042209210120FEF72A
:104E40000FFE012209210120FEF740FB0222092169
:104E50000120FEF7FBFB012209210120FEF798FC4F
:104E6000022205210020FEF78FFA012205210020F1
:104E7000FEF7F6FD002205210020FEF727FB0222A7
:104E800005210020FEF7E2FB002205210020FEF7AD
:104E90007FFC00BF80BD80B500AF0320FFF7D6F8D0
:104EA0000023012203212620FFF774F82620FFF7B4
:104EB00053F80023022203211220FFF76BF812207F
:104EC000FFF74AF800BF80BD80B582B000AF002078
:104ED000FFF7A6FA0346FB71FB79002B01D00023F4
:104EE00009E00020FFF7ACFB0120FFF799FA012051
:104EF000FFF7A6FB012318460837BD4680BD00001A
:104F000080B582B000AF1B4801F034FE0020FEF7F0
:104F100023F90346FB71FB79002B06D0FB79194678
:104F2000154801F0B7FD00231FE00020FEF77AF9D5
:104F30000346FB71FB79002B06D0FB7919460F481D
:104F400001F0A8FD002310E00D490020FEF7E8F96C
:104F50000346FB71FB79002B06D0FB791946094803
:104F600001F098FD002300E0012318460837BD46F4
:104F700080BD00BF5CA1000874A100089CA10008CE
:104F80001D4D0008BCA1000880B582B000AF0D48DF
:104F900001F0F0FD0020FEF75DFE0346FB71FB799A
:104FA000002B06D0FB791946074801F073FD00235A
:104FB00003E0064801F0DEFD012318460837BD4630
:104FC00080BD00BFE4A10008FCA1000824A20008E5
:104FD00080B582B000AF0E4801F0CCFDFDF79AFC21
:104FE0000346FB71FB79002B06D0FB791946094873
:104FF00001F050FD002306E0074801F0BBFD074B20
:1050000000221A70012318460837BD4680BD00BF34
:1050100044A2000864A200088CA20008C209002073
:1050200080B582B000AF114801F0A4FD7621104890
:1050300001F030FD76210020FCF7E6FB0346FB7112
:10504000FB79002B09D0FB7919460A4801F022FDB3
:10505000094801F08FFD002303E0084801F08AFDB4
:10506000012318460837BD4680BD00BFC8A200080E
:10507000E8A2000800A300082CA3000868A3000809
:1050800080B500AF4FF47A711148FFF7C5F80346B9
:10509000002B1AD00F4B1B78002B14BF01230023C9
:1050A000DBB283F00103DBB203F00103DAB2094B98
:1050B0001A70084B1B78002B01D0012300E000235D
:1050C0001A4600210020FEF705FC00BF80BD00BF8E
:1050D000C8090020D809002080B500AF642111481C
:1050E000FFF79AF80346002B1AD00F4B1B78002BC2
:1050F00014BF01230023DBB283F00103DBB203F012
:105100000103DAB2084B1A70074B1B78002B01D051
:10511000012300E000231A4600210020FEF7DAFBFD
:1051200000BF80BDCC090020D909002090B58BB00C
:1051300004AFF8600B467A607B81FB68002B05D0DA
:105140007B68002B02D07B89632B01D800231FE0F2
:1051500079897B681B881C467B685B881A467B685C
:105160009B8918467B681B69029301900092234635
:10517000094AF86801F006FD78617B69002B03DBC2
:105180007B897A699A4201DB002301E07B69DBB20B
:1051900018461C37BD4690BD8CA3000880B590B062
:1051A00006AFF8600B467A607B81FB68002B05D068
:1051B0007B68002B02D07B89952B01D800234BE024
:1051C0007B681B68264A82FB03125211DB17D31A35
:1051D0003B627B681B68224A82FB03125111DA177B
:1051E0008A1A642101FB02F29B1A7B627B6A002B04
:1051F00002DA7B6A5B427B627B685B68184AA2FBCF
:1052000003235B09FB617B685B68154AA2FB031201
:105210005209642101FB02F29B1ABB6179897B6808
:105220005B687A68926804920393BB690293FB6996
:1052300001937B6A00933B6A0A4AF86801F0A2FC7A
:1052400078617B69002B03DB7B897A699A4201DBF9
:10525000002301E07B69DBB218462837BD4680BDDC
:105260001F85EB51C8A3000880B582B000AF0023B2
:10527000FB700023BB7041F288312C48FEF7CCFF55
:105280000346002B4ED02A4B1B78002B26D1FB1C4B
:105290001846FDF76BFCFDF797FC7860FB78002B58
:1052A00017D0244801F066FCBB1C1846FDF740FCF3
:1052B000BB78002B06D0204801F05CFC1C4B01227F
:1052C0001A7030E01D4801F055FC194B02221A708B
:1052D00029E079681A4801F0DDFB24E0144B1B78C3
:1052E000012B0FD1FDF746FD0346002B06D01548D4
:1052F00001F040FC0E4B02221A7014E0124801F03B
:1053000039FC10E00A4B1B78032B0CD10F4801F03D
:1053100031FCFDF74FFB0346002B04D1044B002268
:105320001A7000E000BF0837BD4680BDE0090020CC
:10533000C209002080A400089CA40008C8A400089A
:10534000E0A4000808A5000828A500084CA500084E
:1053500080B5BCB000AF224B1B78022B3CD107F1CB
:1053600018030A211846FDF793FD0346002B34D09D
:105370003B1D14220021184601F034FD3A1D07F1AF
:10538000180311461846FDF75DFB034687F8EF301A
:1053900097F8EF30002B20D13A1D07F12C03C021E4
:1053A0001846FFF7C3FE034687F8EE3097F8EE3055
:1053B000002B12D0FEF724FF014607F12C031A46FA
:1053C000084801F067FB97F8EE3007F12C02002146
:1053D0000548FFF719FB00E000BFF037BD4680BD70
:1053E000C209002074A5000890A5000880B5B4B0DB
:1053F00000AF3B461846FCF7C0FA034687F8CF30AB
:1054000097F8CF30002B1FD13A4607F10C03C0218B
:105410001846FFF7C3FE034687F8CE3097F8CE3024
:10542000002B1AD0FEF7ECFE014607F10C031A46DA
:105430000C4801F02FFB97F8CE3007F10C02002149
:105440000948FFF7E1FA08E0FEF7DAFE014697F8AF
:10545000CF301A46054801F01DFB00BFD037BD46CE
:1054600080BD00BFA4A50008C4A50008DCA50008F5
:1054700080B5B6B002AF254BC7F8CC30244B1B78B3
:10548000002B03D1234BC7F8CC3012E0204B1B7804
:10549000012B03D1204BC7F8CC300AE01C4B1B7802
:1054A000032B03D11D4BC7F8CC3002E01C4BC7F8CF
:1054B000CC30FDF789FBC7F8C800FEF7A1FE034614
:1054C000381D0193D7F8C8300093D7F8CC30154A6F
:1054D000C02101F057FB034687F8C73097F8C73063
:1054E000002B0ED0FEF78CFE01463B1D1A460E48DF
:1054F00001F0D0FA97F8C7303A1D00210B48FFF7AA
:1055000083FA00BFD037BD4680BD00BF3CA600086F
:10551000C209002044A6000850A600085CA60008A6
:1055200064A600086CA60008C0A60008E0A6000853
:1055300090B59DB002AF154B1B68642202FB03F3CC
:10554000134AA2FB03239B097B66104B1C68FEF7E2
:1055500057FE0346384601937B6E009323460D4A5F
:10556000602101F00FFB034687F8633097F8633042
:10557000002B06D097F863303A4600210648FFF723
:1055800043FA00BF6C37BD4690BD00BFDC09002068
:10559000D34D6210F8A6000834A7000880B500AF0C
:1055A000FFF76EFD42F210711148FEF735FE03461B
:1055B000002B0AD00F4B1B78022B04D1FFF7C8FE3B
:1055C000FFF714FF01E0FFF753FF47F230510A489D
:1055D000FEF722FE0346002B08D0FEF711FE03461D
:1055E0001946064801F056FAFFF76CFB00BF80BD74
:1055F000D0090020C2090020D409002048A70008D3
:1056000080B5BCB000AFF860B9601346FB809C4821
:1056100001F0B0FA9B4801F0ADFAFEF7F1FD034648
:105620001946994801F036FAF968984801F032FABB
:10563000FB881946964801F02DFAFB887F2B07D985
:10564000FB887F221946934801F024FA7F23FB80D0
:10565000FA8807F15403B968184601F072FCFB8818
:10566000F0333B44002203F89C2C07F15403194605
:10567000894801F00FFA8949894801F00BFA8749F6
:10568000F868FAF7ADFDC7F8DC00D7F8DC108548FC
:1056900001F000FAD7F8DC30002B40F0DB808248C4
:1056A00001F068FA07F154038049184601F0B4FB91
:1056B000C7F8E800D7F8E830002B00F09B807C4862
:1056C00001F058FAD7F8E8300733C7F8E83004E0BB
:1056D000D7F8E8300133C7F8E830D7F8E8301B785E
:1056E000202BF5D0D7F8E8301B78092BF0D0D7F86D
:1056F000E810704801F0CEF90023C7F8EC30002321
:10570000C7F8E43017E0D7F8EC2013469B001344A9
:105710005B001A46D7F8E8301B781344303BC7F8D3
:10572000EC30D7F8E8300133C7F8E830D7F8E43088
:105730000133C7F8E430D7F8E8301B782F2B04D9B1
:10574000D7F8E8301B78392BDDD9D7F8E420D7F823
:10575000EC10594801F09EF9D7F8EC30B3F57A7F98
:1057600042D8564801F006FA554801F003FA554A66
:10577000D7F8EC301360D7F8EC2000214FF08040D0
:10578000FEF708FED7F8EC30642202FB03F34E4A22
:10579000A2FB03239B09C7F8D830D7F8D820D7F845
:1057A000EC104A4801F076F907F11400D7F8EC3014
:1057B000474A402101F0E6F9034687F8D73007F160
:1057C00014031946434801F065F96420FEF7E6FC2E
:1057D00097F8D73007F1140200213F48FFF714F97A
:1057E0003E4801F0C7F944E0D7F8EC103C4801F01E
:1057F00051F93EE03B4801F0BDF93B4801F0BAF9F0
:105800000023C7F8E03018E007F15402D7F8E03081
:1058100013441B781946354801F03CF9D7F8E030BD
:10582000013303F00F03002B02D1314801F0A2F93C
:10583000D7F8E0300133C7F8E030FB88D7F8E02034
:105840009A4203DAD7F8E0301F2BDDDD284801F05B
:1058500091F90EE0274801F08DF9F868FAF720FD7C
:1058600003461946244801F015F91521234801F093
:1058700011F9234801F07EF900BFF037BD4680BD25
:105880006CA7000898A70008BCA70008D8A70008C4
:10589000F8A700081CA8000858A8000878A8000865
:1058A00090A80008B0A80008D8A800080CA9000813
:1058B00014A9000840A9000868A9000898A90008D0
:1058C000C4A90008DC090020D34D6210E8A9000833
:1058D0001CAA000838AA000834A7000854AA000827
:1058E0006CAA00089CAA0008D0AA0008ECAA00082C
:1058F000F4AA0008F8AA00081CAB000840AB000896
:1059000064AB000880B582B000AFFFF7B9FB0F4869
:1059100001F030F9FCF76AFA0346FB71FB79002BC2
:1059200004D10B4801F026F902230AE0FB79062B8B
:1059300006D0FB791946074801F0ACF8092300E0CE
:10594000012318460837BD4680BD00BF90AB000854
:10595000A8AB0008CCAB000880B582B000AFFFF761
:105960008FFB0D4801F006F90120FCF7D1FA034640
:10597000FB71FB79002B04D1084801F0FBF80323ED
:1059800005E0FB791946064801F084F8092318461A
:105990000837BD4680BD00BFF8AB00081CAC00084E
:1059A00038AC000880B582B000AFFFF769FB0E4944
:1059B0000E4801F06FF80E490B48FCF7D3FA034686
:1059C000FB71FB79002B04D10A4801F0D3F80423C2
:1059D00005E0FB791946084801F05CF809231846F0
:1059E0000837BD4680BD00BF60AC000874AC00083D
:1059F00090AC0008A8AC0008BCAC000880B592B020
:105A000000AFFFF73DFB3B1D40211846FCF7E4FAD1
:105A1000034687F8473097F84730002B06D13B1DE7
:105A20001946094801F036F8052309E097F8473090
:105A3000062B04D0054801F09DF8052300E004235F
:105A400018464837BD4680BDDCAC0008ECAC000809
:105A500080B582B000AFFFF713FB40F25B720E49D6
:105A60000E4801F017F840F25B710B48FCF716FB8B
:105A70000346FB71FB79002B04D1094801F07AF849
:105A8000062305E0FB791946064801F003F80923CF
:105A900018460837BD4680BD10AD000824AD00088B
:105AA0004CAD0008BCAC000880B582B000AFFFF779
:105AB000E7FA0F4801F05EF80E48FEF711FF0346C3
:105AC000FB71FB79002B08D10B4801F053F84FF420
:105AD0007A70FEF763FB072305E0FB791946074858
