:020000040800F2
:100000000080012085740008817200088972000850
:100010009172000899720008A172000800000000A7
:10002000000000000000000000000000A9720008AD
:10003000B772000800000000C57200088152000875
:10004000D5740008D5740008D5740008D57400086C
:10005000D5740008D5740008D5740008D57400085C
:10006000D5740008D5740008D5740008D57400084C
:10007000D5740008D5740008D5740008D57400083C
:10008000D5740008D574000819420008000000006B
:10009000000000000000000000000000D57400080F
:1000A000D5740008D5740008D5740008D57400080C
:1000B000D5740008D5740008D5740008DD4D00081B
:1000C000F94D0008D5740008D5740008D5740008EF
:1000D000D5740008F55600082157000800000000FC
:1000E000D5740008D5740008D5740008000000001D
:1000F000000000000000000000000000D5740008AF
:1001000000000000D5740008D5740008D5740008FC
:1001100000000000000000000000000000000000DF
:10012000D5740008D5740008D5740008D57400088B
:10013000D57400080000000000000000000000006E
:10014000000000000000000000000000D57400085E
:10015000D5740008D5740008D5740008D57400085B
:10016000D5740008D57400080000000000000000ED
:10017000000000000000000000000000000000007F
:1001800000000000D574000800000000000000001E
:04019000D57400081A
:1001A00010B5054C237833B9044B13B10448AFF3B1
:1001B00000800123237010BDE80100200000000032
:1001C00098AB000808B5034B1BB103490348AFF3D4
:1001D000008008BD00000000EC01002098AB000882
:1001E00010F8012B11F8013B012A28BF9A42F7D0E1
:1001F000D01A70470000000000000000000000005E
:1002000001F0FF01102A2BDB10F0070F08D010F8C7
:10021000013B013A8B422DD010F0070F42B3F6D1CB
:10022000F0B441EA012141EA014122F007047FF0E4
:1002300000070023F0E80256083C85EA010586EA3B
:10024000010685FA47F5A3FA87F586FA47F6A5FA77
:1002500087F68EB9EED1F0BC01F0FF0102F0070283
:1002600032B110F8013B013A83EA010313B1F8D12E
:100270000020704701387047002D06BF354603380F
:10028000073815F0010F07D1013015F4807F02BF48
:10029000013015F4C03F0130F0BC0138704700BF99
:1002A000034613F8012B002AFBD1181A01387047B6
:1002B00081F0004102E000BF83F0004330B54FEA17
:1002C00041044FEA430594EA050F08BF90EA020F84
:1002D0001FBF54EA000C55EA020C7FEA645C7FEA17
:1002E000655C00F0E2804FEA5454D4EB5555B8BF3A
:1002F0006D420CDD2C4480EA020281EA030382EAAB
:10030000000083EA010180EA020281EA0303362D3C
:1003100088BF30BD11F0004F4FEA01314FF4801C0F
:100320004CEA113102D0404261EB410113F0004F21
:100330004FEA03334CEA133302D0524263EB4303D8
:1003400094EA050F00F0A780A4F10104D5F1200E76
:100350000DDB02FA0EFC22FA05F2801841F10001D1
:1003600003FA0EF2801843FA05F359410EE0A5F1A5
:1003700020050EF1200E012A03FA0EFC28BF4CF0D6
:10038000020C43FA05F3C01851EBE37101F000458C
:1003900007D54FF0000EDCF1000C7EEB00006EEB99
:1003A0000101B1F5801F1BD3B1F5001F0CD3490823
:1003B0005FEA30004FEA3C0C04F101044FEA44527A
:1003C00012F5800F80F09A80BCF1004F08BF5FEA01
:1003D000500C50F1000041EB045141EA050130BDE1
:1003E0005FEA4C0C404141EB0101013C28BFB1F5F3
:1003F000801FE9D291F0000F04BF01460020B1FA3E
:1004000081F308BF2033A3F10B03B3F120020CDA10
:100410000C3208DD02F1140CC2F10C0201FA0CF0EE
:1004200021FA02F10CE002F11402D8BFC2F1200C53
:1004300001FA02F120FA0CFCDCBF41EA0C01904009
:10044000E41AA2BF01EB0451294330BD6FEA040452
:100450001F3C1CDA0C340EDC04F11404C4F120023D
:1004600020FA04F001FA02F340EA030021FA04F34F
:1004700045EA030130BDC4F10C04C4F1200220FAA6
:1004800002F001FA04F340EA0300294630BD21FAE4
:1004900004F0294630BD94F0000F83F4801306BFAA
:1004A00081F480110134013D4EE77FEA645C18BF9E
:1004B0007FEA655C29D094EA050F08BF90EA020F35
:1004C00005D054EA000C04BF1946104630BD91EA2D
:1004D000030F1EBF0021002030BD5FEA545C05D130
:1004E0004000494128BF41F0004130BD14F580046F
:1004F0003CBF01F5801130BD01F0004545F0FE41E3
:1005000041F470014FF0000030BD7FEA645C1ABF17
:10051000194610467FEA655C1CBF0B46024650EA4E
:10052000013406BF52EA033591EA030F41F400217A
:1005300030BD00BF90F0000F04BF0021704730B500
:100540004FF4806404F132044FF000054FF00001D5
:1005500050E700BF90F0000F04BF0021704730B596
:100560004FF4806404F1320410F0004548BF40426B
:100570004FF000013EE700BF42004FEAE2014FEAC0
:1005800031014FEA02701FBF12F07F4393F07F4F9B
:1005900081F06051704732F07F4208BF704793F09E
:1005A0007F4F04BF41F40021704730B54FF46074B1
:1005B00001F0004521F000411CE700BF50EA0102B4
:1005C00008BF704730B54FF000050AE050EA01025D
:1005D00008BF704730B511F0004502D5404261EBCD
:1005E00041014FF4806404F132045FEA915C3FF40E
:1005F000D8AE4FF003025FEADC0C18BF03325FEAAB
:10060000DC0C18BF033202EBDC02C2F1200300FA5B
:1006100003FC20FA02F001FA03FE40EA0E0021FA80
:1006200002F11444BDE600BF70B54FF0FF0C4CF46E
:10063000E06C1CEA11541DBF1CEA135594EA0C0F20
:1006400095EA0C0F00F0DEF82C4481EA030621EA5B
:100650004C5123EA4C5350EA013518BF52EA033596
:1006600041F4801143F4801338D0A0FB02CE4FF048
:100670000005E1FB02E506F00042E0FB03E54FF078
:100680000006E1FB03569CF0000F18BF4EF0010E70
:10069000A4F1FF04B6F5007F64F5407404D25FEA6C
:1006A0004E0E6D4146EB060642EAC62141EA55511F
:1006B0004FEAC52040EA5E504FEACE2EB4F1FD0C61
:1006C00088BFBCF5E06F1ED8BEF1004F08BF5FEADF
:1006D000500E50F1000041EB045170BD06F0004691
:1006E00046EA010140EA020081EA0301B4EB5C043E
:1006F000C2BFD4EB0C0541EA045170BD41F4801136
:100700004FF0000E013C00F3AB8014F1360FDEBF5A
:10071000002001F0004170BDC4F10004203C35DA36
:100720000C341BDC04F11404C4F1200500FA05F3B9
:1007300020FA04F001FA05F240EA020001F000425A
:1007400021F0004110EBD37021FA04F642EB0601D0
:100750005EEA430E08BF20EAD37070BDC4F10C04FA
:10076000C4F1200500FA04F320FA05F001FA04F2BE
:1007700040EA020001F0004110EBD37041F10001AA
:100780005EEA430E08BF20EAD37070BDC4F12005B5
:1007900000FA05F24EEA020E20FA04F301FA05F21D
:1007A00043EA020321FA04F001F0004121FA04F2C5
:1007B00020EA020000EBD3705EEA430E08BF20EA95
:1007C000D37070BD94F0000F0FD101F000464000CF
:1007D00041EB010111F4801F08BF013CF7D041EA51
:1007E000060195F0000F18BF704703F00046520055
:1007F00043EB030313F4801F08BF013DF7D043EA26
:100800000603704794EA0C0F0CEA135518BF95EADB
:100810000C0F0CD050EA410618BF52EA4306D1D162
:1008200081EA030101F000414FF0000070BD50EA81
:10083000410606BF1046194652EA430619D094EA0B
:100840000C0F02D150EA013613D195EA0C0F05D1F5
:1008500052EA03361CBF104619460AD181EA030149
:1008600001F0004141F0FE4141F470014FF0000001
:1008700070BD41F0FE4141F4780170BD70B54FF09C
:10088000FF0C4CF4E06C1CEA11541DBF1CEA13551C
:1008900094EA0C0F95EA0C0F00F0A7F8A4EB0504FE
:1008A00081EA030E52EA03354FEA013100F08880F5
:1008B0004FEA03334FF0805545EA131343EA1263BE
:1008C0004FEA022245EA111545EA10654FEA002673
:1008D0000EF000419D4208BF964244F1FD0404F52C
:1008E000407402D25B084FEA3202B61A65EB030588
:1008F0005B084FEA32024FF480104FF4002CB6EB45
:10090000020E75EB030E22BFB61A754640EA0C00C4
:100910005B084FEA3202B6EB020E75EB030E22BF04
:10092000B61A754640EA5C005B084FEA3202B6EB45
:10093000020E75EB030E22BFB61A754640EA9C0004
:100940005B084FEA3202B6EB020E75EB030E22BFD4
:10095000B61A754640EADC0055EA060E18D04FEA92
:10096000051545EA16754FEA06164FEAC30343EA32
:1009700052734FEAC2025FEA1C1CC0D111F4801FFF
:100980000BD141EA00014FF000004FF0004CB6E7F8
:1009900011F4801F04BF01430020B4F1FD0C88BF97
:1009A000BCF5E06F3FF6AFAEB5EB030C04BFB6EBA2
:1009B000020C5FEA500C50F1000041EB045170BD95
:1009C0000EF0004E4EEA113114EB5C04C2BFD4EBC2
:1009D0000C0541EA045170BD41F480114FF0000E46
:1009E000013C90E645EA060E8DE60CEA135594EAC2
:1009F0000C0F08BF95EA0C0F3FF43BAF94EA0C0FC5
:100A00000AD150EA01347FF434AF95EA0C0F7FF439
:100A100025AF104619462CE795EA0C0F06D152EA8D
:100A200003353FF4FDAE1046194622E750EA410671
:100A300018BF52EA43067FF4C5AE50EA41047FF482
:100A40000DAF52EA43057FF4EBAE12E74FF0FF3CE7
:100A500006E000BF4FF0010C02E000BF4FF0010CB8
:100A60004DF804CD4FEA410C7FEA6C5C4FEA430C31
:100A700018BF7FEA6C5C1BD001B050EA410C0CBF80
:100A800052EA430C91EA030F02BF90EA020F0020E2
:100A9000704710F1000F91EA030F58BF994208BF49
:100AA00090422CBFD8176FEAE37040F00100704706
:100AB0004FEA410C7FEA6C5C02D150EA013C07D15D
:100AC0004FEA430C7FEA6C5CD6D152EA033CD3D0A8
:100AD0005DF8040B704700BF8446104662468C46A2
:100AE0001946634600E000BF01B5FFF7B7FF0028D5
:100AF00048BF10F1000F01BD4DF808EDFFF7F4FFFE
:100B00000CBF012000205DF808FB00BF4DF808ED88
:100B1000FFF7EAFF34BF012000205DF808FB00BFAB
:100B20004DF808EDFFF7E0FF94BF012000205DF8CD
:100B300008FB00BF4DF808EDFFF7CEFF94BF012082
:100B400000205DF808FB00BF4DF808EDFFF7C4FF7B
:100B500034BF012000205DF808FB00BF4FEA410CC4
:100B60007FEA6C5C02D150EA013C0AD14FEA430CA7
:100B70007FEA6C5C02D152EA033C02D14FF00000E4
:100B800070474FF0010070474FEA410212F5001222
:100B900015D211D56FF47873B3EB625212D94FEAC4
:100BA000C12343F0004343EA505311F0004F23FAAE
:100BB00002F018BF404270474FF00000704750EA03
:100BC000013005D111F0004008BF6FF000407047C0
:100BD0004FF00000704700BF4FEA4102B2F1E0431E
:100BE00024BFB3F5001CDCF1FE5C0DD901F0004C14
:100BF0004FEAC0024CEA5070B2F1004F40EB830064
:100C000008BF20F00100704711F0804F21D113F18F
:100C10003872BCBF01F00040704741F480114FEAC8
:100C20005252C2F11802C2F1200C10FA0CF320FA51
:100C300002F018BF40F001004FEAC1234FEAD3236E
:100C400003FA0CFC40EA0C0023FA02F34FEA4303D8
:100C5000CCE77FEA625307D150EA01331EBF4FF061
:100C6000FE4040F44000704701F0004040F0FE407C
:100C700040F40000704700BF7BB972B90029BEBFC5
:100C800000204FF0004106E008BF00281CBF6FF0B5
:100C900000414FF0FF3000F0BBB9ADF1080C6DE939
:100CA00004CE002909DB002B1ADB00F035F8DDF853
:100CB00004E0DDE9022304B07047404261EB4101EA
:100CC000002B1BDB00F028F8DDF804E0DDE902234F
:100CD00004B0404261EB4101524263EB4303704771
:100CE000524263EB430300F017F8DDF804E0DDE95E
:100CF000022304B0404261EB41017047524263EB72
:100D0000430300F009F8DDF804E0DDE9022304B054
:100D1000524263EB430370472DE9F047089D8E462E
:100D200004468846002B4AD18A42174662D9B2FA55
:100D300082F64EB1C6F1200301FA06F820FA03F359
:100D4000B74043EA0808B4404FEA174E1FFA87FC41
:100D5000B8FBFEF1230C0EFB118843EA084301FBAC
:100D60000CF29A4209D9FB1801F1FF3080F0EA80B9
:100D70009A4240F2E78002393B449A1AA3B2B2FB8E
:100D8000FEF00EFB102243EA024300FB0CFC9C45E4
:100D900009D9FB1800F1FF3280F0D6809C4540F263
:100DA000D3803B44023840EA0140A3EB0C0300210E
:100DB0001DB1F3400022C5E90032BDE8F0878B4247
:100DC00005D90DB1C5E9000100210846F5E7B3FAE0
:100DD00083F1002946D1734502D3824200F2058196
:100DE000841A6EEB030201209046002DE5D0C5E980
:100DF0000048E2E7002A00F09080B2FA82F6002E66
:100E000040F0A4808A1A030C4FEA174E80B2BCB29D
:100E10000121B2FBFEFC0EFB1C2243EA024304FB51
:100E20000CF29A4207D9FB180CF1FF3802D29A4211
:100E300000F2E080C4469B1AB3FBFEF20EFB1233B5
:100E400040EA034302FB04F49C4207D9FB1802F179
:100E5000FF3002D29C4200F2CA8002461B1B42EACB
:100E60000C40A5E7C1F120068B4022FA06F71F438C
:100E70000EFA01F420FA06F32EFA06FE4FEA17499D
:100E8000234300FA01F81FFA87FCBEFBF9F01C0CA3
:100E900009FB10EE44EA0E4400FB0CFEA64502FAE4
:100EA00001F209D93C1900F1FF3A80F09C80A64577
:100EB00040F2998002383C44A4EB0E041FFA83FEF2
:100EC000B4FBF9F309FB13444EEA044403FB0CFCA6
:100ED000A44508D93C1903F1FF3E80F08280A44567
:100EE0007FD9023B3C4443EA0040A4EB0C04A0FB46
:100EF00002EC64457346E14662D35FD05DB1B8EB66
:100F0000030264EB090404FA06F622FA01F31E4315
:100F1000CC40C5E9006400214FE7B1FBF2FC010CB5
:100F200041EA0E4180B240EA01423B4638463C4627
:100F3000B846BE462026B1FBF7F1A2EB080241EA13
:100F40000C4166E7014618E710462CE7C6F120027F
:100F50002EFA02F3B740B14020FA02F24FEA174EE0
:100F60000A43B3FBFEF8BCB20EFB1833110C41EA86
:100F7000034108FB04F9B04089454FEA104380B2B1
:100F80003ED9791808F1FF3C01D289451FD8A1EB61
:100F90000901B1FBFEF909FB04F80EFB191192B22D
:100FA00042EA0142424529D2BA1809F1FF31C4D2BE
:100FB0004245C2D2A9F102013A44BEE7F0459DD2B2
:100FC000BEEB02036CEB070C0138E14696E7A7EB9A
:100FD00009094944A8F1020CB1FBFEF909FB04F828
:100FE000DBE773467FE7504666E70846FDE63B448D
:100FF000023A33E7ACF1020C3B441CE749469CE75C
:10100000A1EB0901C446B1FBFEF909FB04F8C4E7F2
:10101000704700BF80B586B002AF03460A46FB7139
:101020001346BB71FB793B73BB797B730E4B93F813
:101030002030002B01D1042311E00B4B58780A4BD0
:10104000197807F10C024FF47A730093022303F02E
:10105000BCFD0346002B01D0032300E0002318460B
:101060001037BD4680BD00BF0402002080B584B0AB
:1010700002AF03463960FB711346BB711A4B93F8FC
:101080002030002B01D1042329E03B68002B02D043
:10109000BB79002B01D1022321E0134B5878124B6E
:1010A0001978FA1D4FF47A730093012303F08DFD34
:1010B0000346002B01D0032311E00B4B58780A4B59
:1010C0001978BB799BB24FF47A7200923A6803F0B8
:1010D00000FE0346002B01D0032300E00023184646
:1010E0000837BD4680BD00BF0402002080B582B035
:1010F00000AF03463960FB71FB790122396818465D
:10110000FFF7B4FF034618460837BD4680BD000010
:1011100080B586B000AF3B46182219468820FFF7FD
:10112000A5FF0346002B01D0072374E07B781B0248
:101130009BB23A7813439AB2394B5A80FB781BB270
:101140001B021AB2BB781BB213431AB2344B9A80FB
:101150007B791BB21B021AB23B791BB213431AB242
:101160002F4BDA80FB791B029BB2BA7913439AB2F8
:101170002B4B1A817B7A1BB21B021AB23B7A1BB231
:1011800013431AB2264B5A81FB7A1BB21B021AB2C6
:10119000BB7A1BB213431AB2214B9A817B7B1BB2E1
:1011A0001B021AB23B7B1BB213431AB21C4BDA81EF
:1011B000FB7B1BB21B021AB2BB7B1BB213431AB2DE
:1011C000174B1A827B7C1BB21B021AB23B7C1BB2F0
:1011D00013431AB2124B5A82FB7C1BB21B021AB287
:1011E000BB7C1BB213431AB20D4B9A827B7D1BB2A0
:1011F0001B021AB23B7D1BB213431AB2084BDA82B0
:10120000FB7D1BB21B021AB2BB7D1BB213431AB289
:10121000034B1A83002318461837BD4680BD00BF14
:101220000402002080B485B000AF78607B68DA10DB
:10123000184B5B885B00D31A164AB2F9042002FBF4
:1012400003F3DB12FB607B681B11124A52889B1A66
:101250007A6812110F494988521A02FB03F31B13D3
:101260000C4AB2F9062002FB03F39B13BB60FA6839
:10127000BB681344074AD361064BDA6913469B00E7
:10128000134480331B1218461437BD465DF8047BA7
:10129000704700BF040200202DE9B04FCAB000AF74
:1012A000C7F80C01AF4BDB69DA171C461546B4F5DD
:1012B000FA3A45F1FF3BC7E948ABD7F82421D7F804
:1012C000203103FB02F1D7F82421D7F8203102FBAB
:1012D00003F3CA18D7F82031A3FB038902EB0903F3
:1012E0009946A04BB3F912301BB2DA17C7F8B830E1
:1012F000C7F8BC20D7E92E01034603FB09F20B46D1
:1013000008FB03F313440246A8FB0212C7F8C420EB
:101310000A46C7F8C020D7F8C4201344C7F8C43021
:10132000D7E93034C7E94634C7E946348D4BB3F9C1
:1013300010301BB2DA17C7F8B030C7F8B420D7F8AE
:101340002031D7E92C452A4602FB03F2D7F8243195
:10135000214601FB03F31A44D7F820312146A3FBB1
:101360000113C7F804310B46C7F80031D7F8043130
:10137000D318C7F804314FF000004FF00001D7E94F
:1013800040452B465904234641EAD33123465804AD
:10139000D7E9462314183C644B417B64D7E91034E9
:1013A000C7E946346F4BB3F90E301BB2DA17C7F8F2
:1013B000A830C7F8AC204FF000004FF00001D7F87C
:1013C000A830D9000020D7E946231418BC634B414C
:1013D000FB63D7E90E34C7E94634D7F82421D7F8A0
:1013E000203103FB02F1D7F82421D7F8203102FB8A
:1013F00003F3CA18D7F82031A3FB0313C7F8FC3056
:101400000B46C7F8F830D7F8FC30D318C7F8FC30D3
:10141000544BB3F90C301BB2DA17C7F8A030C7F839
:10142000A420D7E93E452B46D7E92889424602FB4E
:1014300003F24B46214601FB03F313442246414687
:10144000A2FB0112C7F8F4200A46C7F8F020D7F82B
:10145000F4201344C7F8F4304FF000004FF00001BF
:10146000D7E93C452346180A2B4640EA03602B4641
:1014700019123C4BB3F90A301BB2DA17C7F898308F
:10148000C7F89C20D7F82031D7E926894A4602FBC5
:1014900003F2D7F82431444604FB03F31A44D7F887
:1014A00020314446A3FB0443C7F8EC302346C7F879
:1014B000E830D7F8EC30D318C7F8EC304FF0000222
:1014C0004FF00003D7E93A894C462303444643EAE8
:1014D00014534446220384183C6341EB03037B63AB
:1014E000D7E90C34C7E94834D7E9482303F500416C
:1014F000C7F89410C7F890201A4B1B899BB20022A2
:10150000C7F88830C7F88C20D7E924452B46D7E99F
:101510002289424602FB03F24B46214601FB03F3BC
:10152000134422464146A2FB0112C7F8E4200A46B2
:10153000C7F8E020D7F8E4201344C7F8E4304FF0B0
:1015400000024FF00003D7E9384529464A102946E2
:10155000CB17C7E94823D7E94823134304D1002315
:1015600049E100BF04020020D7F80C31C3F5801315
:10157000DA17BB62FA62D7E90A34C7E94434D7F80C
:1015800010315B10C7F88430D7F81031DB07C7F88B
:101590008030D7E94623D7E920452146891AB96723
:1015A000294661EB0303FB67D7E91E4522462B461C
:1015B000911839625B417B62D7E9082321465118B3
:1015C000B96129464B41FB614FF000024FF0000327
:1015D000D7E9068949468B01414643EA9163414672
:1015E0008A01414689183961494643EB0101796115
:1015F0004FF000024FF00003D7E9048949468B0001
:10160000414643EA917341468A0010461946034613
:1016100022469B18BB600B462A4642EB0303FB6045
:101620004FF000024FF00003D7E9028949468B00D2
:10163000414643EA917341468A00104619460346E3
:1016400022469B183B672B460A4642EB03037B6707
:10165000D7E94823D7E91C01FFF70EFB02460B46EA
:10166000C7E94423674BB3F918301BB2DA17BB66DE
:10167000FA66D7E944234FF000004FF00001500B09
:1016800040EAC3405913D7E91A452B4600FB03F241
:10169000234603FB01F313442246A2FB0012C7F8C2
:1016A000DC200A46C7F8D820D7F8DC201344C7F856
:1016B000DC30D7E944234FF000004FF00001500B1D
:1016C00040EAC3405913D7E936452B4600FB03F2E5
:1016D000234603FB01F313442246A2FB0012C7F882
:1016E000D4200A46C7F8D020D7F8D4201344C7F82E
:1016F000D4304FF000024FF00003D7E934452146C3
:101700004A0E294642EAC11229464B16C7E9482328
:101710003C4BB3F916301BB2DA173B667A66D7F842
:101720001031D7E918452A4602FB03F2D7F81431E5
:10173000214601FB03F31344D7F810212146A2FBF5
:101740000112C7F8CC200A46C7F8C820D7F8CC2029
:101750001344C7F8CC304FF000024FF00003D7E934
:1017600032452146CA0C294642EA41322946CB1469
:10177000C7E94623D7E94401D7E948238418BC6563
:1017800041EB0303FB65D7E94623D7E9164521461C
:1017900089183965294643EB010179654FF000004E
:1017A0004FF00001D7E914452346180A2B4640EABA
:1017B00003602B461912134BB3F914301BB2DA171E
:1017C000BB64FA644FF000024FF00003D7E91289BE
:1017D0004C462301444643EA1473444622018418CC
:1017E0003C6041EB03037B60D7E90034C7E9443434
:1017F000D7F810311B0A184607F59477BD46BDE8A7
:10180000B08F00BF0402002080B584B000AF034653
:101810000A46FB711346BB71214AFB795370204A7B
:10182000BB7913701E4B012283F82020052003F0A2
:10183000CFFC07F10F03184600F08DF80346002B8C
:1018400002D1FB7B582B0BD0FB7B58221946154845
:1018500006F058FB124B002283F8202001231BE0E6
:1018600000F024F80346002B01D0012314E0FFF719
:101870004FFC0346002B01D007230DE00A4A07F175
:10188000080392E8030018600433198007F1080385
:10189000184600F01FF8034618461037BD4680BDB5
:1018A00004020020B0AB0008E4AB000880B582B0B1
:1018B00000AFB621E020FFF7ADFB0346FB71FB79DB
:1018C000002B02D10A2003F083FCFB79184608376D
:1018D000BD4680BD80B584B000AF78607B68002BCA
:1018E00001D1022333E07B685B785BB25B015AB2C3
:1018F0007B689B785BB29B005BB213435AB27B68F8
:101900001B785BB213435BB2FB73FB7B1946F4207D
:10191000FFF780FB0346002B01D0012317E07B6813
:101920001B795BB25B015AB27B68DB785BB29B00D0
:101930005BB213435AB27B685B795BB213435BB211
:10194000BB73BB7B1946F520FFF764FB03461846C3
:101950001037BD4680BD80B582B000AF78607B682F
:10196000002B01D1022304E07968D020FFF7BEFBF1
:10197000034618460837BD4680BD80B586B000AF27
:1019800078607B68002B01D1022331E007F1080366
:1019900006221946F720FFF769FB0346002B01D00A
:1019A000012325E03B7A1A037B7A1B011343BA7AA1
:1019B0001209D2B213437B61FB7A1A033B7B1B01F2
:1019C00013437A7B1209D2B213433B613869FFF7A4
:1019D00029FC02467B681A607869FFF75DFC0246C5
:1019E0007B685A6003F026FC02467B689A600023FD
:1019F00018461837BD4680BD80B582B000AF78600C
:101A0000044A7B681360044806F0ECFA00BF08370C
:101A1000BD4680BDB4040020ECAB000880B598B092
:101A200000AF78600B467B80614B1B68002B02D0B7
:101A30007B88032B05D87B8819465E4806F062FA3E
:101A4000B3E07B681B7823F00F0387F85B3097F8CF
:101A50005B30302B08D097F85B107B681B781A46F8
:101A6000554806F04FFAA0E0544806F0BBFA7B68F0
:101A700002331B781BB21B021AB27B6803331B783C
:101A80001BB213431BB2A7F858300423A7F85630F3
:101A9000B7F85620B7F858301A447B889A4203DBCF
:101AA000474806F09FFA80E0B7F85830402B28BF2F
:101AB0004023A7F85430B7F856307A68D118B7F8F1
:101AC000542007F10803184606F0AFFCB7F854306D
:101AD00060333B44002203F8582CB7F85620B7F87F
:101AE00058301344A7F85E307B681B785B08DBB284
:101AF00003F0030387F853300023A7F85C3097F80E
:101B00005330002B1FD0B7F85E307A6813441B782F
:101B10001BB21B021AB2B7F85E30013379680B446E
:101B20001B781BB213431BB2A7F85C30B7F85E30CA
:101B30000233A7F85E3097F85330B7F85C201946A7
:101B4000204806F0DFF9B7F85E207B889A422BD256
:101B50007A88B7F85E30D31AA7F85030B7F85E30FD
:101B60007A681344FB64B7F8502007F1080319465C
:101B7000154806F0C7F90E4B1B68B7F8502007F15F
:101B80000800F96C984797F85330012B0DD1B7F83E
:101B90005C30002B09D00D4806F024FAB7F85C3011
:101BA000184601F08FFE00E000BF6037BD4680BDE3
:101BB000B404002010AC000850AC000890AC000841
:101BC000B4AC0008D0AC0008F0AC000818AD0008B8
:101BD00080B582B000AF012003F036FD0346FB71F3
:101BE000894BB3F80432B3F5007F20D2864BB3F8AB
:101BF00000321946844AFB795354834BB3F80032C0
:101C000001335A42C3F30803C2F3080258BF5342D8
:101C10009AB27D4BA3F800227B4BB3F80432013318
:101C20009AB2794BA3F80422784B01221A70784BB0
:101C30001B78DBB2092B00F2468101A252F823F097
:101C4000691C0008B71C0008CD1C0008E31C000834
:101C5000F91C00080F1D0008531D0008951D000801
:101C6000BD1D0008311E0008FB792B2B40F02F8191
:101C7000674B01221A70674B00221A80664B0022C4
:101C80001A80664B00221A70654B1B78DBB2002B62
:101C900006D0644B1B889BB201339AB2614B1A8009
:101CA0005F4B00221A70604B1B889BB201339AB2C3
:101CB0005D4B1A800BE1FB79492B03D1544B022277
:101CC0001A7007E1524B00221A7003E1FB79502B86
:101CD00003D14F4B03221A70FCE04D4B00221A70C7
:101CE000F8E0FB79442B03D1494B04221A70F1E050
:101CF000474B00221A70EDE0FB792C2B03D1444BAB
:101D000005221A70E6E0424B00221A70E2E0FB79ED
:101D10002F2B19D9FB79392B16D8444B1B78002B64
:101D200008D0FB79303BDAB23C4B1A70384B0622B4
:101D30001A700DE0FB799BB2303B9AB2364B1A8099
:101D4000334B08221A7003E0314B00221A70C1E0B5
:101D5000C0E0FB792C2B03D12D4B07221A70B9E080
:101D6000FB792F2B12D9FB79392B0FD82B4B1B78F2
:101D7000DBB21A46920013445B00DAB2FB791344DB
:101D8000DBB2303BDAB2254B1A70A3E0204B0022C5
:101D90001A709FE0FB792F2B0CD9FB79392B09D8CE
:101DA000FB799BB2303B9AB21B4B1A80184B08222E
:101DB0001A708FE0164B00221A708BE0FB792F2BE4
:101DC00013D9FB79392B10D8134B1B889BB21A46B9
:101DD000920013445B009AB2FB799BB213449BB20E
:101DE000303B9AB20C4B1A8074E0FB793A2B06D147
:101DF000074B09221A70074B00221A806AE0044B35
:101E000000221A7066E000BF28020020B004002003
:101E1000B9040020BC060020BE060020CC0800202B
:101E2000B8040020C2060020C4060020C606002018
:101E30002A4B1B889BB2B3F5007F40D2274B1B88EF
:101E40009BB25A1C91B2254A11801946244AFB794B
:101E50005354224B1B889AB2224B1B889BB29A4246
:101E600037D3204B1B889AB21F4B1A801F4B1B780D
:101E7000002B1DD01E4B1B78DBB2002B18D01C4B47
:101E80001B78DAB21B4B83F80222144B1B889AB2E0
:101E9000184BA3F80022114B1B889BB21A4610491D
:101EA000144806F0C2FA134B012283F8032202E021
:101EB000114B01221A70114B00221A7009E00F4BCE
:101EC00000221A7005E00D4B00221A7002E000BFDC
:101ED00000E000BF00BF0837BD4680BDBC06002043
:101EE000BC040020BE060020C0060020C60600205C
:101EF000CC080020C8060020B8040020B904002047
:101F000080B485B000AF78600B467B800023FB81F6
:101F100023E01A4BB3F802321946FB897A6813445E
:101F2000164A525C1A70154BB3F8023201335A420A
:101F3000C3F30803C2F3080258BF53429AB20F4BCF
:101F4000A3F802220D4BB3F80432013B9AB20B4BBB
:101F5000A3F80422FB890133FB81084BB3F8043258
:101F6000002B03D0FA897B889A42D2D3FB8918468A
:101F70001437BD465DF8047B704700BF280200207F
:101F800080B586B000AFF8600B467A607B817868D8
:101F9000FEF786F90346BB82BA8A7B899A4201D949
:101FA000002319E00023FB820FE0FB8AFA68134448
:101FB000BA8A7968184606F091F90346002B01D1D8
:101FC000012309E0FB8A0133FB82FA8A7989BB8A03
:101FD000CB1A9A42E9DD002318461837BD4680BD6A
:101FE00080B582B000AF00F029FC8022002121489A
:101FF00006F06CF92049012003F056FB1F4805F05C
:10200000F1FF40F6B83003F0FBF800F017FC1C4875
:1020100005F0E8FF00F042F80346FB71FB79002B66
:1020200006D0FB791946174805F06CFFFB791CE0D8
:10203000154805F0D7FF154800F0ACF90346FB71D1
:10204000FB79002B04D0124805F0CCFFFB790CE0A3
:1020500041F288310F4800F0CFF90346FB71FB795C
:1020600019460D4805F04EFFFB7918460837BD4666
:1020700080BD00BF30040020D11B000844AD000823
:1020800080AD0008A4AD0008CCAD0008FCAD000890
:1020900004AE00082CAE000830AE000880B582B057
:1020A00000AF0023FB7120E000F0C8FB134800F0F4
:1020B00071F90346BB71BB79002B03D0FB79013367
:1020C000FB7112E041F288310D4800F095F90346AA
:1020D000BB71BB79002B01D100230AE0FB790133EE
:1020E000FB714FF4FA7003F08BF8FB79022BDBD90C
:1020F000032318460837BD4680BD00BF74AE0008F4
:102100002CAE000880B584B000AF0346FB71FB79AC
:102110000D4A0E490E4805F0A3FF0D4800F03AF9AC
:102120000346FB73FB7B002B01D0FB7B07E041F2F6
:102130008831084800F060F90346FB73FB7B1846C2
:102140001037BD4680BD00BF7CAE000888AE0008D9
:10215000300400202CAE000880B586B002AF786055
:1021600039603B6800937B68134A1449144805F0B2
:1021700077FF134800F00EF90346FB73FB7B002B3F
:1021800001D0FB7B13E042F210710E4800F034F9ED
:102190000346FB73FB7B002B01D0FB7B07E042F285
:1021A0001071094800F028F90346FB73FB7B1846C1
:1021B0001037BD4680BD00BF90AE00089CAE000841
:1021C00030040020ACAE0008BCAE000880B5ADF510
:1021D000047D00AF07F50473A3F5037318600A4686
:1021E00007F50473A3F20D231A7000F027FB07F123
:1021F0000C034FF400720021184606F067F82348DC
:1022000000F0C8F8034687F80F3297F80F32002B1A
:1022100002D097F80F3233E04FF4FA7002F0F0FF7B
:1022200007F10C034FF400711846FFF769FE0346EF
:10223000A7F80C32B7F80C32002B20D007F5047346
:10224000A3F20D231B789BB2B7F80C229A4216D248
:10225000B7F80C2207F10C0107F50473A3F503731B
:10226000186806F0E2F8B7F80C3207F50472A2F528
:1022700003721268134400221A70002300E0012345
:10228000184607F50477BD4680BD00BFD4AE0008F0
:1022900080B586B002AF78600B467B801C4A1D4932
:1022A0001D4805F0DDFE1C4800F074F80346FB7382
:1022B000FB7B002B01D0FB7B25E041F288311748E6
:1022C00000F09AF80346FB73FB7B002B01D0FB7BED
:1022D00019E07B8800937B68114A12490E4805F08B
:1022E000BFFE0D4800F056F80346FB73FB7B002B46
:1022F00001D0FB7B07E042F210710B4800F07CF844
:102300000346FB73FB7B18461037BD4680BD00BFFC
:10231000E0AE0008ECAE0008300400202CAE00084F
:10232000F4AE000804AF000818AF000880B584B010
:1023300000AF78600B467B807B88124A12491348B5
:1023400005F08EFE114800F025F80346FB73FB7B79
:10235000002B01D0FB7B11E0642002F051FF7B8851
:10236000DBB21A467968012003F02AF941F288317C
:10237000074800F041F80346FB73FB7B1846103713
:10238000BD4680BD20AF000888AE000830040020A4
:102390002CAF000880B584B000AF78607868FDF796
:1023A0007FFF0346FB81FB89002B02D0FB89802B3A
:1023B00001D9012317E079680D4805F0A3FDFB89D9
:1023C000DBB21A467968012003F0FAF803467B7302
:1023D0007B7B002B06D07B7B1946064805F092FDDF
:1023E000012300E0002318461037BD4680BD00BF22
:1023F00054AF000870AF000880B5ADF5087D00AFA0
:1024000007F50873A3F50773186007F50873A3F5BC
:10241000087319600023A7F81E320023C7F818328A
:1024200007F50873A3F508731B68D24AA2FB0323C0
:10243000DB08C7F80C3207F108034FF400720021E3
:10244000184605F043FF07F50873A3F5087207F572
:102450000873A3F5077312681968C74805F052FDA1
:102460006FE1C64B1B78DBB2002B00F06281C448E1
:1024700005F0B8FDB7F81E3207F108021A44B7F8A4
:102480001E32C3F500739BB219461046FFF738FDA4
:102490000346A7F80A32B7F81E22B7F80A321344E7
:1024A000A7F81E32B54B00221A70B7F80A32002B7B
:1024B00000F01C81B7F80A32B7F81E221946B1485D
:1024C00005F020FDB04805F01DFD0023A7F81632E9
:1024D0002CE0B7F8163207F50872A2F50672D35C45
:1024E0001F2B13D9B7F8163207F50872A2F506723A
:1024F000D35C7E2B0AD8B7F8163207F50872A2F51E
:102500000672D35C184605F00FFD0AE0B7F81632E4
:1025100007F50872A2F50672D35C19469B4805F0D0
:10252000F1FCB7F816320133A7F81632B7F81622C5
:10253000B7F81E329A42CCD3954805F053FD0023DC
:10254000A7F81432C6E0B7F8143207F50872A2F5FE
:102550000672D35C2B2B40F0B680B7F814320133EF
:1025600007F50872A2F50672D35C492B40F0AB80E8
:10257000B7F81432023307F50872A2F50672D35C7D
:10258000502B40F0A080B7F81432033307F50872DF
:10259000A2F50672D35C442B40F09580B7F8143254
:1025A000043307F50872A2F50672D35C2C2B40F0B9
:1025B0008A80784805F016FDB7F814320533A7F87D
:1025C00014320023A7F8123217E0B7F812321A4675
:1025D000920013445B009BB2B7F8142207F5087110
:1025E000A1F506718A5C13449BB2303BA7F8123206
:1025F000B7F814320133A7F81432B7F81422B7F839
:102600001E329A4211D2B7F8143207F50872A2F5B9
:102610000672D35C2F2B08D9B7F8143207F508726D
:10262000A2F50672D35C392BCFD9B7F81422B7F8CC
:102630001E329A424DD2B7F8143207F50872A2F54D
:102640000672D35C3A2B44D1B7F814320133A7F8A1
:102650001432B7F81212B7F81E22B7F81432D31A90
:102660001A464D4805F04EFCB7F81422B7F812325E
:102670001A44B7F81E329A4218DC484805F0B2FCFA
:10268000B7F8143207F108021344B7F812221146C2
:102690001846FFF7C3F9424805F0A4FCB7F8142226
:1026A000B7F812321344A7F8143212E0B7F8122226
:1026B000B7F81E12B7F81432CB1AD31A1946394894
:1026C00005F020FC12E0B7F814320133A7F81432F9
:1026D00000E000BFB7F81E32042B07D9B7F81E324E
:1026E0001A1FB7F814329A423FF72DAF07F5087357
:1026F000A3F50773B7F81E1207F108001A68FFF771
:102700003FFC0346002B04D0274805F06BFC002358
:102710008BE0B7F81E1207F10803244A1846FFF7AA
:102720002FFC0346002B04D0214805F05BFC01235D
:102730007BE00A2002F064FDD7F818320133C7F8B5
:102740001832D7F81822D7F80C329A42FFF489AE23
:10275000B7F81E321946174805F0D4FBB7F81E32F9
:10276000002B61D0144805F0CDFB0023A7F81032F0
:1027700051E000BFCDCCCCCC9CAF0008B004002011
:10278000D4AF0008F4AF000818B0000830B000085B
:102790003CB0000840B0000870B00008A0B00008CD
:1027A000D0B00008F0B0000824B100084CAF000819
:1027B00048B1000868B1000894B10008B7F81032B9
:1027C00007F50872A2F50672D35C1F2B13D9B7F870
:1027D000103207F50872A2F50672D35C7E2B0AD878
:1027E000B7F8103207F50872A2F50672D35C1846E6
:1027F00005F09AFB0AE0B7F8103207F50872A2F567
:102800000672D35C19460B4805F07CFBB7F8103212
:102810000133A7F81032B7F81022B7F81E329A42E7
:10282000CCD3054805F0DEFB0223184607F50877F0
:10283000BD4680BD30B000083CB0000880B500AF98
:102840000B4B0022A3F80022094B0022A3F802221E
:10285000074B0022A3F80422064B00221A704FF403
:1028600000720021024805F031FD00BF80BD00BFAD
:1028700028020020B004002080B5C2B000AF00F0F4
:10288000F9F80346002B02D000F000F9E5E0754BA3
:102890001B78DBB2002B00F0DD803B464FF48071EB
:1028A0001846FFF72DFB0346A7F80231B7F80231AF
:1028B000002B00F0D1800023A7F80631C2E0B7F862
:1028C00006311A1DB7F802319A4280F2B680B7F885
:1028D000063107F58472A2F58472D35C2B2B40F08D
:1028E000AC80B7F80631013307F58472A2F5847223
:1028F000D35C492B40F0A180B7F80631023307F5CD
:102900008472A2F58472D35C502B40F09680B7F8A5
:102910000631033307F58472A2F58472D35C442B2D
:1029200040F08B80B7F806310533A7F80631002355
:10293000A7F8043117E0B7F804311A46920013449F
:102940005B009BB2B7F8062107F58471A1F584718D
:102950008A5C13449BB2303BA7F80431B7F80631C8
:102960000133A7F80631B7F80621B7F802319A42C9
:1029700011D2B7F8063107F58472A2F58472D35CE0
:102980002F2B08D9B7F8063107F58472A2F58472A7
:10299000D35C392BCFD9B7F80621B7F802319A4268
:1029A0004BD2B7F8063107F58472A2F58472D35C76
:1029B0003A2B42D1B7F806310133A7F80631B7F800
:1029C00004311946284805F09DFA284B00221A8048
:1029D00013E0B7F806315A1CA7F806211946234B15
:1029E0001B885A1C90B2214A10801A4607F584733E
:1029F000A3F58473595C1E4B9954B7F80621B7F8B8
:102A000002319A420AD2194B1B88B7F804219A4224
:102A100004D9164B1B88B3F5007FDAD3134B1B8800
:102A2000B7F804219A4208D1104B1B881946104868
:102A3000FEF7F4FF0D4B00221A80B7F80631013380
:102A4000A7F80631B7F80621B7F802319A42FFF429
:102A500036AF02E000BF00E000BF07F58477BD4657
:102A600080BD00BFB0040020ACB10008CE0800203B
:102A7000D008002080B400AF034B1B78DBB21846AF
:102A8000BD465DF8047B7047B804002080B5ADF505
:102A9000027D00AF404B1B78DBB2002B77D072B6C3
:102AA00000BF3E4B1B88A7F80432B7F80432002B56
:102AB0000BD0B7F80432B3F5007F06D8B7F804227C
:102AC0003B1D3749184605F0B0FC334B00221A7005
:102AD000324B00221A8062B600BFB7F80432002BD6
:102AE00056D0B7F804322F4A128892B219462E48AF
:102AF00005F008FA2D4B1B889BB219462C4B1B88FE
:102B00009BB21A462B4805F0FDF92B4805F0FAF95F
:102B10000023A7F806320FE0B7F8063207F5027275
:102B2000A2F50172D35C1946244805F0EBF9B7F819
:102B300006320133A7F80632B7F80622B7F8043296
:102B40009A4203D2B7F806320F2BE5D91C4805F09C
:102B500049FAB7F80432022B11D107F50273A3F535
:102B600001731B78D02B0AD107F50273A3F501730B
:102B70005B78002B03D1134805F034FA08E0B7F86E
:102B800004223B1D11461846FEF748FF00E000BF37
:102B900007F50277BD4680BDB8040020BC060020C2
:102BA000BC040020C0060020DCB10008C4060020E0
:102BB000C206002028B2000854B2000874B200080F
:102BC0003CB000087CB2000880B582B000AF0023A2
:102BD000FB710B4B42F210721A60094B00221A7102
:102BE000074B00229A60074B01221A7002F022FB69
:102BF0000346054A1360FB7918460837BD4680BD79
:102C0000D40A0020D00A0020E00A002080B584B059
:102C100000AF78600B467B800023FB7307F10F0346
:102C2000184600F0FDF80346002B01D0012312E006
:102C3000FB7B002B01D103230DE0094B02221A700C
:102C400002F0F8FA0346074A13607B881946786851
:102C500000F01AFB034618461037BD4680BD00BF82
:102C6000D00A0020E40A002080B500AF0B4B002200
:102C70001A700B4B00221A600A4B00221A600A4B92
:102C800042F210721A60084B00221A71064B0022A1
:102C90009A60FFF799FF0346184680BDD00A0020CE
:102CA000E00A0020E40A0020D40A002080B582B0A7
:102CB00000AF78603960386800F0A4FA0346002B52
:102CC00001D0042312E0786800F09CFA0346002B40
:102CD00001D004230AE0074B1B78002B01D102230B
:102CE00004E03968786800F09DFA03461846083712
:102CF000BD4680BDD00A002080B584B000AF7860AA
:102D00003960386800F07EFA0346002B01D00423B6
:102D100047E014220021386805F0D8FA3B681946CC
:102D20007868FFF7C3FF0346FB73FB7B002B01D0E2
:102D3000FB7B36E03B681B88184600F0C1F8034671
:102D40001A463B685A803B685B88184600F0D2F808
:102D500002463B685A60154B1B79012B1BD13B681F
:102D60005B68124A12681146184600F0E7F8F0EE68
:102D7000407A3B68C3ED027A0D4B1B78032B0AD1D6
:102D80003B68D3ED027AB0EE670A00F0F9F803462B
:102D90001A463B689A8102F04DFA02463B681A6176
:102DA000002318461037BD4680BD00BFD40A00205E
:102DB000D00A002080B582B000AF7860786800F05B
:102DC00021FA0346002B01D0042304E0044B1A68C7
:102DD0007B681A60002318460837BD4680BD00BFD7
:102DE000D40A002080B582B000AF7860786800F027
:102DF00009FA0346002B01D004230AE0074B1B7994
:102E0000002B0CBF01230023DBB21A467B681A702B
:102E1000002318460837BD4680BD00BFD40A0020F5
:102E200080B584B000AF7860786800F0EBF90346B5
:102E3000002B01D004231BE00F4B1B68002B04D197
:102E40007B6800221A70002312E002F0F3F90246B8
:102E5000094B1B68D31AFB60FB6847F22F52934261
:102E60008CBF01230023DBB21A467B681A70002353
:102E700018461037BD4680BDE00A002080B582B0FC
:102E800000AF0E4B1B68002B02D147F2305311E00C
:102E900002F0D0F90246094B1B68D31A7B607B68AD
:102EA00047F22F52934201D9002303E07B68C3F518
:102EB000EA43303318460837BD4680BDE00A00209B
:102EC00080B483B000AF0346FB80FB8840F6E44249
:102ED00002FB03F3064A82FB03121A44D212DB17E9
:102EE000D31A9BB218460C37BD465DF8047B704779
:102EF0008100088080B485B000AF0346FB80FB886A
:102F0000002B04D0FB8840F6E342934201D9002312
:102F10000DE0FB88C3F54E6304331A4642F210738A
:102F200003FB02F2FB88B2FBF3F3FB60FB6818467D
:102F30001437BD465DF8047B7047000080B483B051
:102F400000AF786039603B68002B02D1DFED0B6A7F
:102F50000BE07B6807EE903AB8EE677A3B6807EEC5
:102F6000903AF8EE677AC7EE276AF0EE667AB0EE2E
:102F7000670A0C37BD465DF8047B7047000000000F
:102F800080B584B000AF87ED010AD7ED017AF5EE88
:102F9000C07AF1EE10FA01D8002334E0DFED1E0A0A
:102FA00097ED010A07F030FA10EE103A1846FDF7D7
:102FB000E3FA17A3D3E90023FDF736FB02460B46DD
:102FC00010461946FDF708FE0346FB60D7ED037A6D
:102FD000F5EEC07AF1EE10FA03D54FF00003FB6076
:102FE0000AE0D7ED037A9FED0D7AF4EEC77AF1EEA1
:102FF00010FA01DD0A4BFB60D7ED037AFCEEE77AAD
:1030000017EE903A9BB218461037BD4680BD00BF00
:103010008B3D0F4988265D40DE3731C000FF7F477A
:1030200000FF7F4780B58AB002AF3B4B1B78002B77
:103030000AD13A4804F0D6FF374B01221A70384BB8
:1030400000221A70002362E0354B1B78022B3BD81C
:1030500007F108030A21184600F072F80346002B16
:103060002AD0BA1D07F108031146184600F0DAF815
:103070000346002B19D12A4B1B781A46F988294B95
:1030800023F81210264B1B780133DAB2244B1A7046
:10309000234B1B781946FB881A460A2300931346D4
:1030A0000322214804F02EFF0CE01D4B1B7819462B
:1030B0001E4804F027FF05E0194B1B7819461C48F1
:1030C00004F020FF002322E01A4804F08BFF0321C4
:1030D0001448FFF79BFD0346FB770F4B00221A7045
:1030E0000F4B00221A70FB7F002B0AD13B4618467B
:1030F000FFF760FE3B6819460F4804F003FF012309
:1031000005E0FB7F19460D4804F0FCFE002318463D
:103110002037BD4680BD00BFE80A00209CB40008EF
:10312000E90A0020EC0A0020C4B4000800B5000839
:1031300030B5000860B5000898B50008C8B50008AB
:1031400080B584B000AF78600B46FB707B68002BC5
:1031500002D0FB78002B01D1002344E00023FB7256
:103160003CE0234B00221A700521002000F0D2FF22
:103170000346BB72BB7A002B07D0FB7ABA7A19469A
:103180001C4804F0BFFE00232DE01B4BFB6002E057
:10319000FB68013BFB60164B1B78DBB2002B02D1B6
:1031A000FB68002BF4D1124B1B78DBB2002B0BD049
:1031B000FB7A5B007A681344104A128892B21A8034
:1031C000322002F005F806E0FB7A19460C4804F0BC
:1031D00099FE002307E0FB7A0133FB72FA7AFB7851
:1031E0009A42BED3012318461037BD4680BD00BFAA
:1031F000F80B0020F0B50008A0860100F60B0020B7
:1032000020B6000880B483B000AF78607B68002BE4
:1032100001D1042300E0002318460C37BD465DF8B9
:10322000047B704780B485B000AF786039600023BC
:10323000FB607B68002B02D03B68002B01D1092387
:103240001AE00023FB720BE0FB7A5B007A68134400
:103250001B881A46FB681344FB60FB7A0133FB7240
:10326000FB7A092BF0D9FB68064AA2FB0323DB0893
:103270009AB23B681A80002318461437BD465DF8A1
:10328000047B7047CDCCCCCC80B586B000AF7860E5
:103290000B467B8000237B617868FFF7B3FF034612
:1032A000002B02D17B88032B01D004233AE00023BA
:1032B0007B731AE07B7B5B007A6813441B8818469B
:1032C000FFF7FEFD0346FB81FB891846FFF712FE60
:1032D00038613B69002B01D1012323E07A693B6906
:1032E00013447B617B7B01337B737B7B9BB27A884E
:1032F0009A42DFD8F9897B883A690C4804F002FECB
:103300007B887A69B2FBF3F3094A1360084B012208
:103310001A7101F08FFF0346054A9360054B0322A3
:103320001A70002318461837BD4680BD40B6000805
:10333000D40A0020D00A002080B586B000AFF86023
:10334000B9607A607868FCF7ABFF0346FB82FB8AC2
:103350001B0A99B2BB681B885A1C90B2BA681080CD
:103360001A46FB681344CAB21A70BB681B885A1C01
:1033700091B2BA6811801A46FB681344FA8AD2B235
:103380001A70BB681B881A46FB6813447968184694
:1033900005F043F8BB681A88FB8A13449AB2BB68ED
:1033A0001A8000BF1837BD4680BD80B584B000AF1D
:1033B00078607868FCF774FF0346FB73FB7B0C3383
:1033C000DBB218461037BD4680BD80B584B000AF73
:1033D00078600B46FB701346BB707868FCF760FFA3
:1033E0000346BB73BA7BBB781344DBB20233FB7377
:1033F000FB78002B02D0FB7B0233FB73FB7B184670
:103400001037BD4680BD80B584B000AF7860786865
:10341000FCF746FF0346FB73FB7B0533DBB2184624
:103420001037BD4680BD000080B584B000AF786025
:103430000B467B807B8819460F4804F063FD0F48DC
:1034400004F0D0FD7B8819467868FEF76FFF0346CD
:10345000FB73FB7B002B04D1094804F0C3FD002360
:1034600005E0FB7B1946074804F04CFD0123184694
:103470001037BD4680BD00BF6CB600088CB6000892
:1034800090B60008BCB6000880B584B000AF786084
:103490007B68002B03D07B681B78002B04D13D4850
:1034A00004F0A0FD022371E07868FCF7F9FE034602
:1034B000FB81FB89322B07D9FB893222194636481A
:1034C00004F020FD022361E07868FFF76EFF0346F9
:1034D0007B737B7B0233DC2B04D9304804F082FD04
:1034E000032353E02E4B00221A802D4B1B885A1CBD
:1034F00091B22B4A11801A462A4B10219954284B1D
:103500001B885A1C91B2264A11801946254A7B7B9A
:103510005354254A22492348FFF70EFF204B1B88AE
:103520005A1C91B21E4A11801A461E4B042199540E
:103530001B4B1B885A1C91B2194A11801A46194B11
:1035400002219954164B1B885A1C91B2144A1180BF
:103550001A46144BFF219954114B1B885A1C91B2E7
:103560000F4A11801A460F4BFF2199547A680C4973
:103570000C48FFF7E1FE79680C4804F0C3FC084BE7
:103580001B8819460748FFF74FFF034618461037B8
:10359000BD4680BDF0B600080CB7000834B700087F
:1035A000D00B0020F40A002054B700085CB70008D4
:1035B00080B586B000AFF8607A601A460B46FB72A1
:1035C0001346BB72FB68002B0CD0FB681B78002BEA
:1035D00008D07B68002B05D0BB7A002B02D0FB7A89
:1035E000022B04D94F4804F0FDFC022396E0F86852
:1035F000FCF756FE0346BB82BB8A402B07D9BB8A29
:1036000040221946484804F07DFC022386E0BB7A3C
:10361000C82B07D9BB7AC8221946444804F072FC6B
:1036200002237BE0BA7AFB7A1946F868FFF7CDFEF1
:103630000346FB74FB7C0233DC2B04D93C4804F0CA
:10364000D1FC03236AE03B4B00221A80FB7A002B5B
:1036500001D0322100E03021364B1B885A1C90B239
:10366000344A10801A46344B9954324B1B885A1CEA
:1036700091B2304A118019462F4AFB7C5354FA68A4
:103680002C492D48FFF758FEFB7A002B22D02B4BFC
:103690001B889BB21B0A99B2264B1B885A1C90B2FE
:1036A000244A10801A46C9B2234B9954234B1B88D5
:1036B00099B2204B1B885A1C90B21E4A10801A46A1
:1036C000C9B21D4B99541D4B1B889BB201339AB252
:1036D0001A4B1A800023FB750FE0FB7D7A681A44B1
:1036E000144B1B88591C88B212490880194612785D
:1036F000114B5A54FB7D0133FB75FA7DBB7A9A421C
:10370000EBD3BB7A1A46F9680D4804F0FBFB094B72
:103710001B8819460848FFF787FE034618461837E6
:10372000BD4680BD90B70008B4B70008DCB70008FC
:1037300000B80008D00B0020F40A00200000002090
:1037400020B8000880B584B000AF78607B68002B9B
:1037500003D07B681B78002B04D13D4804F042FC69
:10376000022371E07868FCF79BFD0346FB81FB892F
:10377000402B07D9FB8940221946364804F0C2FB8A
:10378000022361E07868FFF73EFE03467B737B7B94
:103790000233DC2B04D9304804F024FC032353E02B
:1037A0002E4B00221A802D4B1B885A1C91B22B4A9B
:1037B00011801A462A4B82219954284B1B885A1C87
:1037C00091B2264A11801946254A7B7B5354254BDA
:1037D0001B889BB21B0A99B2204B1B885A1C90B2C3
:1037E0001E4A10801A46C9B21D4B99541D4B1B88A6
:1037F00099B21A4B1B885A1C90B2184A10801A466C
:10380000C9B2174B9954174B1B889BB201339AB21C
:10381000144B1A807A6811491148FFF78DFD0F4B40
:103820001B885A1C91B20D4A11801A460C4B01217B
:10383000995479680C4804F065FB084B1B881946BD
:103840000748FFF7F1FD034618461037BD4680BD17
:1038500060B80008B4B7000888B80008D00B002092
:10386000F40A002000000020ACB8000880B500AFCA
:10387000114B00221A80104B1B885A1C91B20E4A21
:1038800011801A460D4BC02199540B4B1B885A1CB2
:1038900091B2094A11801A46084B002199540848F0
:1038A00004F0A0FB044B1B8819460448FFF7BCFD3D
:1038B0000346184680BD00BFD00B0020F40A00204C
:1038C000E0B8000880B582B000AF0346FB801F4B14
:1038D00000221A801D4B1B885A1C91B21B4A118072
:1038E0001A461B4B40219954184B1B885A1C91B205
:1038F000164A11801A46164B02219954FB881B0A5E
:1039000099B2124B1B885A1C90B2104A10801A466A
:10391000C9B20F4B99540D4B1B885A1C91B20B4ADC
:1039200011801A46FB88D9B2094B9954FB88194675
:10393000084804F0E7FA054B1B8819460448FFF7CE
:1039400073FD034618460837BD4680BDD00B0020E6
:10395000F40A002004B9000880B586B002AF03461F
:103960000A46FB711346BB71FB7963F07F03DBB240
:103970003B73BB797B730E4B5B79002B01D1042326
:1039800011E00B4B58780A4B197807F10C024FF4F1
:103990007A730093022301F018F90346002B01D03B
:1039A000032300E0002318461037BD4680BD00BF4A
:1039B000D40B002080B586B002AF03463960FB719E
:1039C000FB7963F07F03DBB2FB73184B5B79002B51
:1039D00001D1042326E03B68002B01D1022321E022
:1039E000124B5878114B197807F10F024FF47A7384
:1039F0000093012301F0E9F80346002B01D00323D3
:103A000010E00A4B5878094B19784FF47A730093F9
:103A100001233A6801F05DF90346002B01D003232E
:103A200000E0002318461037BD4680BDD40B0020AF
:103A300080B586B002AF03463960FB71FB7963F055
:103A40005F03DBB2FB731E4B5B79002B01D10423B8
:103A500032E03B68002B01D102232DE0184B58784F
:103A6000174B197807F10F024FF47A730093012373
:103A700001F0ABF80346002B01D003231CE0104BF0
:103A800058780F4B197807F10C024FF47A730093B2
:103A9000022301F01EF90346002B01D003230BE0A3
:103AA0007B7B1BB21B021AB23B7B1BB213431BB2C4
:103AB0009AB23B681A80002318461037BD4680BD75
:103AC000D40B002080B48DB000AF03460A46FB80C3
:103AD0001346BB80774B9B78002B02D0012B04D080
:103AE00007E047F21753FB6207E040F6E773FB621B
:103AF00003E04FF48063FB6200BF6E4BDB78002B6A
:103B000002D1FB6A1B01FB62FB88FA6A02FB03F32A
:103B10009B0ABB61BB88FA6A02FB03F39B0A7B61C9
:103B20000023BB62BB69002B05D07B699A02BB698D
:103B3000B2FBF3F3BB62BB6A01335B083B615D4BD5
:103B40001B79002B4DD13B69432B06D84FF40173F1
:103B50007B6240F2AD133B628EE03B69852B06D859
:103B60004FF40A737B6240F2C1233B6284E03B69FD
:103B7000C82B06D840F253237B6240F263333B628A
:103B80007AE03B69B3F5857F06D840F282237B62F9
:103B900040F2DF333B626FE03B69B3F5A77F06D2AB
:103BA00040F277137B6240F2DD133B6264E03B69D5
:103BB000B3F5CD7F06D840F201137B6240F22713A4
:103BC0003B6259E03B6940F29A22934204D8372382
:103BD0007B622B233B624FE000237B6200233B622E
:103BE0004AE03B69402B06D84FF4F9737B624FF4EF
:103BF000DF733B6240E03B69802B06D84FF40573CE
:103C00007B6240F2D1233B6236E03B69C02B06D891
:103C100040F23F237B6240F27B333B622CE03B6906
:103C2000B3F5807F06D84FF41C737B6240F2FE33FD
:103C30003B6221E03B69B3F59C7F06D840F26F13ED
:103C40007B624FF4FE733B6216E03B69B3F5CD7FB8
:103C500004D8D2237B62FB233B620DE03B6940F238
:103C60009A22934204D818237B6212233B6203E01A
:103C700000237B6200233B62BB697A6A03FB02F28A
:103C80007B69396A01FB03F3D31AFB61FB69002BE3
:103C900001DA0023FB61FB6903F50053FB61FB695B
:103CA0009B13FB60FB6818463437BD465DF8047B08
:103CB000704700BFD40B002080B584B000AF03462E
:103CC0000A46FB711346BB71344AFB795370334A81
:103CD000BB791370314B01225A71304B00229A711B
:103CE0002E4B02229A702D4B0022DA702B4B0122B0
:103CF0001A71052001F06CFA00F088F80346002BD9
:103D000007D0274804F06EF9244B00225A71012392
:103D100040E007F10F03184600F092F80346002B2D
:103D200007D0204804F05EF91C4B00225A7103238F
:103D300030E0FB7B03F0F003502B09D0FB7B1946EE
:103D4000194804F0DFF8154B00225A71012321E0D5
:103D5000FB7B1946154804F0D5F8154A07F10C030A
:103D60001268114619800233120C1A7007F10C0305
:103D7000184600F023F80346002B07D00D4804F046
:103D800031F9064B00225A71012303E00A4804F07E
:103D900029F9002318461037BD4680BDD40B0020FA
:103DA00070B9000890B90008B4B90008E8B9000873
:103DB0004CBA000808BA000828BA000880B584B0D8
:103DC00000AF78607B68002B01D1022317E07B688D
:103DD0001A780D4B9A707B685A780B4BDA707B68B7
:103DE0009A78094B1A717B681A787B685B78134361
:103DF000FB73FB7B19460120FFF7AEFD0346184617
:103E00001037BD4680BD00BFD40B002080B582B006
:103E100000AF03210020FFF79FFD0346FB71FB79F4
:103E2000002B05D1054B01229A71322001F0D0F907
:103E3000FB7918460837BD4680BD00BFD40B002073
:103E400080B582B000AF78607B68002B01D102237F
:103E500004E079680A20FFF7ADFD034618460837ED
:103E6000BD4680BD80B584B000AF786039607B68A6
:103E7000002B02D03B68002B01D102231CE0104B29
:103E80009B79002B01D1042316E079680C20FFF701
:103E9000CFFD0346FB73FB7B002B01D0FB7B0BE0CC
:103EA00039680E20FFF7C4FD0346FB73FB7B002B34
:103EB00001D0FB7B00E0002318461037BD4680BDD3
:103EC000D40B002080B584B000AF78607B68002BF5
:103ED00001D1022332E007F10A0207F10C03114677
:103EE0001846FFF7BFFF0346FB73FB7B002B01D097
:103EF000FB7B23E0BA897B681A807A897B685A80C9
:103F000001F098F902467B689A60BB894FF6FF7210
:103F1000934204D07B894FF6FF72934204D17B68B1
:103F200000225A60062309E0BB897A8911461846A7
:103F3000FFF7C8FD02467B685A6000231846103719
:103F4000BD4680BD80B483B000AF0346FB71FB79F2
:103F5000002B01D1044B00E0002318460C37BD466E
:103F60005DF8047B704700BF0020014080B584B03D
:103F700000AF0346FB710B46BB7113467B71FB79A7
:103F80001846FFF7DFFFF860FB68002B01D1022322
:103F90003BE0BB79112B01D9032336E0BB79092B18
:103FA00018D8BB791A4652001344BB72FB681A69D1
:103FB000BB7A072101FA03F3DB431A40FB681A615D
:103FC000FB681B697979BA7A01FA02F21A43FB6835
:103FD0001A6119E0BB790A3BDBB21A46520013445E
:103FE000FB72FB68DA68FB7A072101FA03F3DB4313
:103FF0001A40FB68DA60FB68DB687979FA7A01FAC3
:1040000002F21A43FB68DA60002318461037BD46F7
:1040100080BD000080B584B000AF0346FB71FB7922
:104020001846FFF78FFFB860BB68002B01D1022351
:104030004FE0BB689B6823F00102BB689A60274B86
:104040005B68264A23F440335360244B5B68234A61
:1040500043F480335360BB6800225A60BB685A68DF
:10406000BB685A60BB685B6843F02002BB685A605B
:10407000BB6800229A60BB689B6823F07062BB68D3
:104080009A60BB689B6823F04052BB689A60BB682B
:104090009B6843F48062BB689A600023FB7308E06E
:1040A000F97BFB7904221846FFF760FFFB7B0133A5
:1040B000FB73FB7B122BF3D9BB680022DA62BB686F
:1040C00000221A63BB6800225A63BB6800221A6090
:1040D000002318461037BD4680BD00BF00230140B5
:1040E00080B584B000AF0346FB71FB791846FFF73B
:1040F00029FFF860FB68002B01D1022306E0FB6872
:104100009B6843F00102FB689A6000231846103751
:10411000BD4680BD80B584B000AF03460A46FB7142
:104120001346BB71FB791846FFF70CFFB860BB68FC
:10413000002B01D1022322E0BB79112B01D90323EB
:104140001DE0BB79102B02D11023FB7307E0BB7974
:10415000112B02D11123FB7301E0BB79FB73BB6808
:104160000022DA62FA7BBB685A63BB6800221A60DD
:10417000BB689B6843F08042BB689A600023184686
:104180001037BD4680BD80B584B000AF03463960AE
:10419000FB713B68002B01D101231BE0FB79184622
:1041A000FFF7D0FEF860FB68002B01D1022311E07D
:1041B000FB681B685B0803F00103002B01D105239A
:1041C00008E0FB68DB6C9BB2C3F30B039AB23B685D
:1041D0001A80002318461037BD4680BD80B483B0D6
:1041E00000AF03463960FB713B68002B01D101230E
:1041F00009E0FB79002B05D1064A3B68136000BF3C
:10420000002300E0022318460C37BD465DF8047B0E
:10421000704700BFDC0B002080B500AF074B1B6868
:104220005B0803F00103012B06D1054B1B68002B33
:1042300002D0034B1B68984700BF80BD002001409F
:10424000DC0B002080B485B000AF0346FB710B4649
:10425000BB7113467B71BB795B00032202FA03F347
:10426000DB43FB60FB79052B7AD801A252F823F0DF
:1042700089420008AD420008D1420008F54200081A
:10428000194300083D430008394B1A683849FB6858
:1042900013400B60364B1B687979BA79520001FAEA
:1042A00002F21146324A0B4313605AE0314B1A684E
:1042B0003049FB6813400B602E4B1B687979BA7943
:1042C000520001FA02F211462A4A0B43136048E0F9
:1042D000294B1A682849FB6813400B60264B1B6862
:1042E0007979BA79520001FA02F21146224A0B4357
:1042F000136036E0214B1A682049FB6813400B60BD
:104300001E4B1B687979BA79520001FA02F2114604
:104310001A4A0B43136024E0194B1A681849FB68CA
:1043200013400B60164B1B687979BA79520001FA79
:1043300002F21146124A0B43136012E0114B1A6845
:104340001049FB6813400B600E4B1B687979BA79F2
:10435000520001FA02F211460A4A0B43136000E0D0
:1043600000BF00BF1437BD465DF8047B704700BF37
:10437000000002400004024000080240000C02401D
:1043800000100240001C024080B483B000AF03461E
:10439000FB710B46BB7113467B71FB79052B00F259
:1043A0009F8001A252F823F0C1430008F1430008A6
:1043B000214400085144000881440008B144000829
:1043C0007B79012B09D14A4B5A68BB79012101FA4B
:1043D00003F3474913434B6083E0454B5A68BB796D
:1043E000012101FA03F3DB43414913404B6078E0BC
:1043F0007B79012B09D13F4B5A68BB79012101FA26
:1044000003F33C4913434B606BE03A4B5A68BB796A
:10441000012101FA03F3DB43364913404B6060E0AE
:104420007B79012B09D1344B5A68BB79012101FA00
:1044300003F3314913434B6053E02F4B5A68BB7968
:10444000012101FA03F3DB432B4913404B6048E0A1
:104450007B79012B09D1294B5A68BB79012101FADB
:1044600003F3264913434B603BE0244B5A68BB7966
:10447000012101FA03F3DB43204913404B6030E094
:104480007B79012B09D11E4B5A68BB79012101FAB6
:1044900003F31B4913434B6023E0194B5A68BB7964
:1044A000012101FA03F3DB43154913404B6018E087
:1044B0007B79012B09D1134B5A68BB79012101FA91
:1044C00003F3104913434B600BE00E4B5A68BB7962
:1044D000012101FA03F3DB430A4913404B6000E07A
:1044E00000BF00BF0C37BD465DF8047B704700BFBE
:1044F000000002400004024000080240000C02409C
:1045000000100240001C024080B485B000AF03469A
:10451000FB710B46BB7113467B71BB795B000322B9
:1045200002FA03F3DB43FB60FB79052B7AD801A287
:1045300052F823F04D4500087145000895450008E4
:10454000B9450008DD45000801460008394B9A6866
:104550003849FB6813408B60364B9B687979BA7990
:10456000520001FA02F21146324A0B4393605AE0BC
:10457000314B9A683049FB6813408B602E4B9B6827
:104580007979BA79520001FA02F211462A4A0B43AC
:10459000936048E0294B9A682849FB6813408B6078
:1045A000264B9B687979BA79520001FA02F21146DA
:1045B000224A0B43936036E0214B9A682049FB68FE
:1045C00013408B601E4B9B687979BA79520001FACF
:1045D00002F211461A4A0B43936024E0194B9A6881
:1045E0001849FB6813408B60164B9B687979BA7940
:1045F000520001FA02F21146124A0B43936012E094
:10460000114B9A681049FB6813408B600E4B9B68F6
:104610007979BA79520001FA02F211460A4A0B433B
:10462000936000E000BF00BF1437BD465DF8047B17
:10463000704700BF00000240000402400008024032
:10464000000C024000100240001C024080B485B003
:1046500000AF0346FB710B46BB7113467B71BB7900
:104660005B00032202FA03F3DB43FB60FB79052BBB
:104670007AD801A252F823F091460008B546000806
:10468000D9460008FD4600082147000845470008B4
:10469000394BDA683849FB681340CB60364BDB682E
:1046A0007979BA79520001FA02F21146324A0B4383
:1046B000D3605AE0314BDA683049FB681340CB6075
:1046C0002E4BDB687979BA79520001FA02F2114671
:1046D0002A4A0B43D36048E0294BDA682849FB6833
:1046E0001340CB60264BDB687979BA79520001FA26
:1046F00002F21146224A0B43D36036E0214BDA68BE
:104700002049FB681340CB601E4BDB687979BA798E
:10471000520001FA02F211461A4A0B43D36024E018
:10472000194BDA681849FB681340CB60164BDB68FD
:104730007979BA79520001FA02F21146124A0B4312
:10474000D36012E0114BDA681049FB681340CB606C
:104750000E4BDB687979BA79520001FA02F2114600
:104760000A4A0B43D36000E000BF00BF1437BD46C8
:104770005DF8047B704700BF000002400004024067
:1047800000080240000C024000100240001C0240E1
:1047900080B483B000AF0346FB710B46BB71134678
:1047A0007B717B79012B4FD1FB79052B00F2A08027
:1047B00001A252F823F000BFD1470008E5470008E6
:1047C000F94700080D48000821480008354800084E
:1047D0004C4B5A69BB79012101FA03F34949134350
:1047E0004B6188E0484B5A69BB79012101FA03F318
:1047F000454913434B617EE0444B5A69BB79012123
:1048000001FA03F3414913434B6174E0404B5A6989
:10481000BB79012101FA03F33D4913434B616AE07F
:104820003C4B5A69BB79012101FA03F3394913431F
:104830004B6160E0384B5A69BB79012101FA03F3FF
:10484000354913434B6156E0FB79052B52D801A241
:1048500052F823F06D480008834800089948000882
:10486000AF480008C5480008DB480008254B5A69D6
:10487000BB79012101FA03F3DB43224913404B6169
:1048800039E0214B5A69BB79012101FA03F3DB437B
:104890001D4913404B612EE01C4B5A69BB79012125
:1048A00001FA03F3DB43194913404B6123E0184B32
:1048B0005A69BB79012101FA03F3DB431449134020
:1048C0004B6118E0134B5A69BB79012101FA03F3DC
:1048D000DB43104913404B610DE00F4B5A69BB7924
:1048E000012101FA03F3DB430B4913404B6102E062
:1048F00000BF00E000BF00BF0C37BD465DF8047B81
:10490000704700BF0000024000040240000802405F
:10491000000C024000100240001C024080B487B02E
:1049200000AF0346FB710B46BB7113467B71BB792D
:10493000072B03D8BB799B00FB7504E0BB79083BD0
:10494000DBB29B00FB75FB7D0F2202FA03F3DB4316
:104950003B61FB79052B00F2998001A252F823F00C
:1049600079490008A7490008D5490008034A00080A
:10497000314A00085F4A0008BB79072B01D8474B32
:1049800000E0474BFB60FB681A683B691A40FB6814
:104990001A60FB681B687979FA7D01FA02F21A4302
:1049A000FB681A6073E0BB79072B01D83D4B00E030
:1049B0003D4BFB60FB681A683B691A40FB681A6054
:1049C000FB681B687979FA7D01FA02F21A43FB68E9
:1049D0001A605CE0BB79072B01D8344B00E0344B04
:1049E000FB60FB681A683B691A40FB681A60FB6849
:1049F0001B687979FA7D01FA02F21A43FB681A60A2
:104A000045E0BB79072B01D82A4B00E02A4BFB601D
:104A1000FB681A683B691A40FB681A60FB681B68F0
:104A20007979FA7D01FA02F21A43FB681A602EE0E6
:104A3000BB79072B01D8214B00E0214BFB60FB68C1
:104A40001A683B691A40FB681A60FB681B68797931
:104A5000FA7D01FA02F21A43FB681A6017E0BB798B
:104A6000072B01D8174B00E0174BFB60FB681A6857
:104A70003B691A40FB681A60FB681B687979FA7D0C
:104A800001FA02F21A43FB681A6000E000BF00BF9F
:104A90001C37BD465DF8047B704700BF2000024014
:104AA0002400024020040240240402402008024066
:104AB00024080240200C0240240C02402010024036
:104AC00024100240201C0240241C024080B483B009
:104AD00000AF0346FB71FB79022B0AD0022B0ADCE4
:104AE000002B02D0012B02D005E0064B04E0064B60
:104AF00002E0064B00E0002318460C37BD465DF887
:104B0000047B70470054004000580040005C0040A7
:104B100080B584B000AF0346FB71FB791846FFF700
:104B2000D5FFF860FB68002B01D1022349E0FB6848
:104B30001B6823F00102FB681A60FB681B6843F4E2
:104B40000042FB681A60FB681B6823F40042FB68A4
:104B50001A60FB685B6823F03F02FB685A60FB68E1
:104B60005B6843F01002FB685A60FB680022DA6160
:104B700000237B8150237B81FB68DB6923F40042A7
:104B8000FB68DA61FB68DA697B891A43FB68DA61E2
:104B900000233B8111233B813B8903F03F02FB68EB
:104BA0001A62FB6800229A60FB689B6843F48042AB
:104BB000FB689A60FB681B6843F00102FB681A609F
:104BC000002318461037BD4680BD80B586B000AFC3
:104BD0003A601A460346FB710B46BB711346BB8015
:104BE000FB791846FFF772FFF860FB68002B01D1D4
:104BF00002236AE03B6A7B61FB681B6843F48072B6
:104C0000FB681A6007E07B69013B7B617B69002BD5
:104C100001D1032359E0FB685B6903F00103002B1A
:104C2000F1D0BB795A00FB681A613B6A7B6107E0EF
:104C30007B69013B7B617B69002B01D1032344E04D
:104C4000FB685B695B0803F00103002BF0D0FB6895
:104C50009B6900237B821BE03B6A7B6107E07B69E9
:104C6000013B7B617B69002B01D103232DE0FB68B5
:104C70005B69DB0903F00103002BF0D07B8A3A6803
:104C800013441B781A46FB681A617B8A01337B82C6
:104C90007A8ABB889A42DFD33B6A7B6107E07B69F3
:104CA000013B7B617B69002B01D103230DE0FB6895
:104CB0005B699B0803F00103002BF0D0FB681B68C5
:104CC00043F40072FB681A60002318461837BD468B
:104CD00080BD80B586B000AF3A601A460346FB71CE
:104CE0000B46BB711346BB80FB791846FFF7EEFEFF
:104CF000F860FB68002B01D102236BE03B6A7B610B
:104D0000FB681B6843F48062FB681A60FB681B68E1
:104D100043F48072FB681A6007E07B69013B7B61AA
:104D20007B69002B01D1032354E0FB685B6903F02E
:104D30000103002BF1D0BB795B0043F00102FB685B
:104D40001A613B6A7B6107E07B69013B7B617B69A0
:104D5000002B01D103233DE0FB685B695B0803F096
:104D60000103002BF0D0FB689B6900237B8226E0C7
:104D70007A8ABB88013B9A4205D1FB681B6823F401
:104D80008062FB681A603B6A7B6107E07B69013BDC
:104D90007B617B69002B01D103231BE0FB685B690E
:104DA0009B0903F00103002BF0D0FB6819697B8A93
:104DB0003A681344CAB21A707B8A01337B827A8ABA
:104DC000BB889A42D4D3FB681B6843F40072FB682B
:104DD0001A60002318461837BD4680BD80B500AF65
:104DE000044B1B68002B02D0024B1B68984700BF86
:104DF00080BD00BFE00B002080B500AF044B1B68F6
:104E0000002B02D0024B1B68984700BF80BD00BF3B
:104E1000E40B002080B483B000AF4CF250337B60D1
:104E200002E07B68013B7B60094BDB68002B02D012
:104E30007B68002BF5D17B68002B01D0002300E0BC
:104E4000022318460C37BD465DF8047B704700BF4F
:104E50000030004080B584B000AF78607B68002BE4
:104E600008D07B681B78062B04D87B685B88B3F579
:104E7000805F01D303232AE0174B4CF6CC421A6023
:104E8000154B45F255521A607B681A78124B5A60DE
:104E9000FFF7C0FF0346FB73FB7B002B01D0FB7BBE
:104EA00015E00D4B45F255521A607B685A880A4B43
:104EB0009A60FFF7AFFF0346FB73FB7B002B01D02B
:104EC000FB7B04E0044B4AF6AA221A600023184632
:104ED0001037BD4680BD00BF0030004080B400AF39
:104EE000044B4AF6AA221A6000231846BD465DF814
:104EF000047B70470030004080B483B000AF0346AD
:104F0000FB71FB79EF2B0CD8FB7903F01F030849E9
:104F1000FA795209D2B21046012202FA03F341F89B
:104F2000203000BF0C37BD465DF8047B704700BFE2
:104F300000E100E090B484B000AF0446084611469A
:104F40001A462346FB710346BB710B467B71134621
:104F50003B710023FB73FB79EF2B40D8BB79033BFC
:104F6000042B31D801A252F823F000BF874F00086C
:104F7000B54F00088D4F0008A14F0008814F000871
:104F80003B79FB7323E07B79FB7320E097F90530D5
:104F90009B005AB297F9043013435BB2FB7316E0DF
:104FA00097F90530DB005AB297F9043013435BB22E
:104FB000FB730CE097F905305B005AB297F90430A7
:104FC00013435BB2FB7302E00023FB7300BF06498F
:104FD000FB79FA7B1201D2B20B4483F8002300BFA5
:104FE0001037BD4690BC704700E100E080B483B04C
:104FF00000AF0346FB71084B084A1A60FB791B029D
:10500000054A43F0BF6343F40033136000BF0C371D
:10501000BD465DF8047B70470CED00E00000FA052A
:1050200080B483B000AF03460A46FB711346BB71E0
:10503000FB79032B32D801A252F823F04D5000081F
:10504000615000087550000889500008174B1A6815
:10505000BB79012101FA03F3144913430B601EE0ED
:10506000134B1A68BB79012101FA03F3104913436A
:105070000B6014E00F4B1A68BB79012101FA03F3AE
:105080000C4913430B600AE00B4B1A68BB790121F2
:1050900001FA03F3084913430B6000E000BF00BFAF
:1050A0000C37BD465DF8047B704700BF30380240C6
:1050B00034380240403802404438024080B400AFE7
:1050C000124B1B68114A43F00103136000BF0F4BE2
:1050D0001B6803F00203002BF9D00D4B1B680C4A30
:1050E00023F0010313600A4B1B68094A23F00203F3
:1050F000136000BF064B1B6803F00C03002BF9D1B3
:1051000000BF00BFBD465DF8047B70470038024019
:105110000838024080B483B000AF104B7B60104B66
:105120001B680F4A43F00103136002E07B68013BF8
:105130007B600B4B1B6803F00203002B02D17B68E2
:10514000002BF3D17B68002B01D1022300E0002368
:1051500018460C37BD465DF8047B704740420F008F
:105160007438024080B400AF064B1B6803F0005354
:10517000002B01D0012300E000231846BD465DF856
:10518000047B70477438024080B400AF054B1B6845
:10519000044A43F08073136000BFBD465DF8047B92
:1051A000704700BF7438024080B400AF074B40F234
:1051B000CF725A60054B00229A60044B03221A609A
:1051C00000BFBD465DF8047B704700BF10E000E003
:1051D00080B584B000AF78607B68002B0CD000F005
:1051E00029F8F86000BF00F025F80246FB68D31AE2
:1051F0007A689A42F7D800E000BF1037BD4680BDFC
:1052000080B485B000AF78600023FB6003E000BF8E
:10521000FB680133FB607B684FF4FA6203FB02F228
:10522000FB689A42F3D800BF00BF1437BD465DF853
:10523000047B704780B400AF034B1B681846BD4623
:105240005DF8047B704700BFE80B002080B582B09A
:1052500000AF78603960FFF7EDFF02467B681B689E
:10526000D31A3A689A4206D8FFF7E4FF02467B68F1
:105270001A60012300E0002318460837BD4680BDB0
:1052800080B400AF044B1B680133034A136000BFB6
:10529000BD465DF8047B7047E80B002080B485B004
:1052A00000AFF8607B600B46FB7213463B813B8985
:1052B000013B1A46FB689A627B685A1EFB68DA62F9
:1052C000FB7A032B62D801A252F823F0DD520008CA
:1052D000095300083553000861530008FB689B69B7
:1052E00043F06002FB689A61FB689B6943F0080227
:1052F000FB689A61FB681B6A43F00102FB681A6253
:10530000FB6800225A6341E0FB689B6943F4C0429A
:10531000FB689A61FB689B6943F40062FB689A61D1
:10532000FB681B6A43F01002FB681A62FB680022EC
:105330009A632BE0FB68DB6943F06002FB68DA618B
:10534000FB68DB6943F00802FB68DA61FB681B6AF3
:1053500043F48072FB681A62FB680022DA6315E08E
:10536000FB68DB6943F4C042FB68DA61FB68DB6918
:1053700043F40062FB68DA61FB681B6A43F4805205
:10538000FB681A62FB6800221A6400BFFB681B6896
:1053900043F08002FB681A60FB685B6943F001021E
:1053A000FB685A61FB681B6923F00102FB681A6104
:1053B000FB681B6843F00102FB681A6000BF1437EA
:1053C000BD465DF8047B704780B485B000AFF860DF
:1053D0000B467A60FB72FB7A032B1BD801A252F8B2
:1053E00023F000BFF5530008FD53000805540008E2
:1053F0000D540008FB687A685A630BE0FB687A6812
:105400009A6307E0FB687A68DA6303E0FB687A680E
:105410001A6400BF00BF1437BD465DF8047B7047B7
:1054200080B483B000AF0346FB71FB79002B02D040
:10543000012B02D003E0054B02E0054B00E0002306
:1054400018460C37BD465DF8047B704700100140DC
:105450000044004080B58AB000AF0346FB71574B53
:105460003B61FB791846FFF7DBFFF860FB68002B18
:1054700001D102239EE0FB79002B02D0012B0CD03E
:1054800017E04FF4E1337B6200233B620023FB61B2
:105490000023BB6100237B610DE04FF4E1337B62AD
:1054A00000233B620023FB610023BB6100237B617F
:1054B00001E002237EE0FA68D36823F40053D3604E
:1054C0007B6A5A083B691A447B6AB2FBF3F2FB68B9
:1054D0009A60FA68D36823F48053D360FA68D3687B
:1054E00023F48063D360FA68D36823F40073D36035
:1054F000FA68D36823F40043D360FA68D36823F0D2
:105500000803D360FA68D36823F00403D360FA6811
:10551000D36823F02003D3607B6903F00103D9B281
:10552000FA68D36861F3CF33D3603B6A03F00103B9
:10553000D9B2FA68D36861F30C33D360BB69002B2E
:1055400012D0FA68D36843F48063D360BB69022B3E
:1055500005D1FA68D36843F40073D36004E0FA68B5
:10556000D36823F40073D360FB681B6923F44052B3
:10557000FB681A61FB69012B05D1FB681B6943F4C9
:105580000052FB681A61FA68D36843F00803D360DD
:10559000FA68D36843F00403D360FA68D36843F031
:1055A0002003D360FB681B68BB60FB685B68BB6063
:1055B000BB68002318462837BD4680BD0024F40090
:1055C00080B586B000AF03463960FB711346BB71EE
:1055D0003B68002B02D0BB79002B01D101232DE0C9
:1055E000FB791846FFF71CFFF860FB68002B01D120
:1055F000022323E00023FB741BE0FB7C3A68134486
:105600001B781A46FB685A600E4B7B6107E07B698A
:10561000013B7B617B69002B01D103230EE0FB681A
:105620001B689B0903F00103002BF0D0FB7C0133C6
:10563000FB74FA7CBB799A42DFD3002318461837F3
:10564000BD4680BDA086010080B584B000AF034692
:10565000FB71FB791846FFF7E3FEF860FB68002B4F
:1056600001D1022302E0FB685B68DBB21846103709
:10567000BD4680BD80B584B000AF0346FB71FB79A9
:105680001846FFF7CDFEF860FB68002B01D102231E
:1056900005E0FA68D36843F40053D360002318464A
:1056A0001037BD4680BD000080B483B000AF034614
:1056B0003960FB713B68002B01D1012310E0FB79BD
:1056C000002B02D0012B04D007E0084A3B6813608E
:1056D00005E0074A3B68136001E0022300E0002375
:1056E00018460C37BD465DF8047B7047EC0B002074
:1056F000F00B002080B500AF074B1B685B0903F07F
:105700000103012B06D1054B1B68002B02D0034B74
:105710001B68984700BF80BD00100140EC0B0020C3
:1057200080B500AF074B1B685B0903F00103012B39
:1057300006D1054B1B68002B02D0034B1B68984712
:1057400000BF80BD00440040F00B002080B584B055
:1057500000AF03460A46FB711346BB71FB7918463E
:10576000FFF75EFEB860BB68002B01D1022315E095
:105770000C4BFB6007E0FB68013BFB60FB68002B08
:1057800001D103230AE0BB681B68DB0903F00103B6
:10579000002BF0D0BA79BB685A6000231846103746
:1057A000BD4680BDA086010080B582B000AF7860A4
:1057B0007B68DBB219460020FFF7C8FF7B681846FC
:1057C0000837BD4680BD00000FB480B5C2B000AF41
:1057D00007F58A7207F58473A3F584731A6007F5D9
:1057E0008473A3F58473381D1B68D7F810214FF418
:1057F000807102F0C9FCC7F80401D7F80431002B0E
:1058000015DBD7F80431FF2B0BDDFF23C7F804317C
:1058100007F58473A3F58272D7F80431134400228C
:105820001A703B1D1946064802F06CFB00E000BFF1
:1058300007F58477BD46BDE8804004B0704700BFDF
:1058400050BA000880B500AF04490020FEF79BFC69
:10585000034B01221A7000BF80BD00BFF60B002071
:10586000F80B002080B500AFFFF728FCFFF752FCD3
:1058700000210020FFF7D4FB01210020FFF7D0FB1F
:1058800004210320FFF7CCFB11210220FFF7C8FB06
:1058900008210320FFF7C4FB15210220FFF7C0FBFE
:1058A00000210220FFF7BCFB00BF80BD80B500AF28
:1058B000012200210020FEF7C5FC0022002100206B
:1058C000FEF762FD012200210020FEF71DFE0322EB
:1058D00001210020FEF7B6FC022209210020FEF77C
:1058E000B1FC02220A210020FEF7ACFC07220921AC
:1058F0000020FFF713F807220A210020FFF70EF817
:10590000022202210020FEF79DFC0222032100203A
:10591000FEF798FC072202210020FEF7FFFF072276
:1059200003210020FEF7FAFF022208210120FEF7E2
:1059300089FC042208210120FEF7F0FF0122082142
:105940000120FEF721FD022208210120FEF7DCFDE7
:10595000012208210120FEF779FE022209210120FF
:10596000FEF770FC042209210120FEF7D7FF012277
:1059700009210120FEF708FD022209210120FEF77E
:10598000C3FD012209210120FEF760FE022205214C
:105990000020FEF757FC012205210020FEF7BEFF84
:1059A000002205210020FEF7EFFC02220521002045
:1059B000FEF7AAFD002205210020FEF747FE022285
:1059C00006210020FEF73EFC012206210020FEF702
:1059D000A5FF002206210020FEF7D6FC02220621A8
:1059E0000020FEF791FD002206210020FEF72EFE8A
:1059F000022207210020FEF725FC012207210020BA
:105A0000FEF78CFF002207210020FEF7BDFC0222DA
:105A100007210020FEF778FD002207210020FEF775
:105A200015FE00BF80BD80B500AF0320FFF7DEFA92
:105A30000023012203212620FFF77CFA2620FFF70E
:105A40005BFA0023022203211220FFF773FA1220CF
:105A5000FFF752FA00BF80BD80B582B000AF0020D2
:105A6000FFF7F8FC0346FB71FB79002B01D0002304
:105A700009E00020FFF7FEFD0120FFF7EBFC01200D
:105A8000FFF7F8FD012318460837BD4680BD00002A
:105A900080B582B000AF1B48FFF796FE0020FEF7EE
:105AA000B9FA0346FB71FB79002B06D0FB79194646
:105AB0001548FFF789FE00231FE00020FEF710FBCA
:105AC0000346FB71FB79002B06D0FB7919460F4882
:105AD000FFF77AFE002310E00D490020FEF77EFB61
